:020000040800F2
:10000000B810002001010008172C0008ED27000897
:10001000152C000809090008F93C00080000000040
:10002000000000000000000000000000CB370008C6
:10003000B90C0008000000002533000855380008FE
:100040001B0100081B0100081B0100081B01000820
:100050001B0100081B0100081B0100081B01000810
:100060001B0100081B0100081B0100081B01000800
:10007000710C00087D0C0008890C0008950C000824
:10008000A10C0008AD0C00081B0100081B010008B2
:10009000B13C00081B0100081B0100081B010008FF
:1000A0001B0100081B0100081B0100081B010008C0
:1000B000F1380008FD3800081B0100081B0100088A
:1000C0001B0100081B0100081B0100081B010008A0
:1000D0001B0100088D3C0008993C0008A53C000865
:1000E0001B0100081B0100081B010008DFF80CD0F1
:1000F00000F03CF900480047AB3F0008B810002072
:100100000648804706480047FEE7FEE7FEE7FEE7B1
:10011000FEE7FEE7FEE7FEE7FEE7FEE7A938000898
:10012000ED00000840EA01039B0703D009E008C97D
:10013000121F08C0042AFAD203E011F8013B00F8AC
:10014000013B521EF9D27047D2B201E000F8012BF8
:10015000491EFBD270470022F6E710B513460A4647
:1001600004461946FFF7F0FF204610BDF0B480EAC0
:100170000102D40F4200B2EB410F02D20246084600
:1001800011464A0042D0C30DDDB2C1F3C752AD1AC9
:10019000202D35DAC1F3160141F4000204B15242B8
:1001A000C5F1200602FA06F12A411044B3EBD05FF4
:1001B00023D0C4B1012DA0EBC35009DCF0BC4FF03B
:1001C000004202EAC352DBB200F5000000F09FB823
:1001D000400000F1807000EBC350A0F1807040EA55
:1001E000D170490009E0490841EAC071A0EBC35051
:1001F00000F50000400800EBC350F0BC00F07EB8F2
:100200006142012202EB4101001BF6E7F0BC70479E
:1002100081F00041AAE780F00040A7E780EA0102F0
:1002200010B502F00043400022D04A001FD0010E5A
:1002300001EB1261C0F35600C2F3560240F4000015
:1002400042F40002A0FB022000047F39140400D015
:10025000401C50EA124001D44000491EC2B20C06B4
:1002600004EBD010401C4008802A02D003E000209C
:1002700010BD20F00100002900DA0020184310BD55
:10028000420005D0C0F3C7525242914201DC002027
:10029000704700EBC1507047C10F80EAE07008441E
:1002A000CA079623002100F032B896230022114697
:1002B00000F02DB800F0004220F00040C10DC0F366
:1002C000160040F400007F2901DA002070479629CB
:1002D00003DCC1F19601C84001E096398840002A4C
:1002E000F4D0404270470000002801DBC0F100401C
:1002F000002901DBC1F10041884270470029A8BFF5
:100300007047401C490008BF20F00100704710B43E
:10031000B0FA80FC00FA0CF050EA010404BF10BCF3
:10032000704749B1CCF1200421FA04F411FA0CF120
:1003300018BF012121430843A3EB0C01CB1D4FEA59
:1003400000614FEA102042BF002010BC704700EB54
:10035000C35010440029A4BF10BC7047401C490082
:1003600008BF20F0010010BC70470000064C074D8C
:1003700006E0E06840F0010394E807009847103475
:10038000AC42F6D3FFF7B6FEB8400008D8400008EC
:100390003EB5C8244FF496752B4601228B498C48F4
:1003A000009403F0C0FD8A482B460122894934306D
:1003B000009403F0B8FD86482B4601228649683038
:1003C000009403F0B0FD82482B46012283499C3003
:1003D000009403F0A8FD7E482B4601228049D030CE
:1003E000009403F0A0FD2B4601227E497E48009434
:1003F00003F099FD7C482B4601227C49343000945F
:1004000003F091FD78482B46012279496830009429
:1004100003F089FD74482B46012276499C300094F4
:1004200003F081FD70482B4601227349D0300094BF
:1004300003F079FD714A0021654803F0E2FC64484D
:100440006F4A0021343003F0DCFC61486D4A002122
:10045000683003F0D6FC64486B4A0021683803F02A
:10046000D0FC6148694A0021343803F0CAFC5E4878
:10047000674A0021343003F0C4FC664A00215A4820
:1004800003F0BFFC5848644A0021683003F0B9FC0F
:100490005548624A00219C3003F0B3FC5248604A40
:1004A0000021D03003F0ADFC544A0521484803F048
:1004B000A8FC4748524A0521343003F0A2FC4448C6
:1004C000504A0521683003F09CFC47484E4A0521FC
:1004D000683803F096FC44484C4A0521343803F050
:1004E00090FC41484A4A0521343003F08AFC494ACD
:1004F00005213D4803F085FC3B48474A052168300B
:1005000003F07FFC3848454A05219C3003F079FC14
:100510003548434A0521D03003F073FC2C4803F0E2
:100520001BFD2B48343003F017FD2948683003F0D9
:1005300013FD2D48683803F00FFD2B48343803F0C5
:100540000BFD294803F008FD2748343003F004FD73
:100550002548683003F000FD23489C3003F0FCFC84
:100560002148D03003F0F8FC02F0EEFD01212D48C7
:1005700002F014FF2B480221183002F00FFF294827
:100580000321303002F00AFF26480421483002F0EF
:1005900005FF0F480121283802F0B2FF214A214B04
:1005A0004832A2F11801A1F118008DE8070062009D
:1005B0000721483003F082FB00F008FA02F0CAFB82
:1005C000BDE83E40184803F067BA0000B13D00089E
:1005D00070050020113D00084D3D0008893D0008D0
:1005E0009D3D0008FD3C000874060020253D0008E4
:1005F000753D0008393D0008613D0008A508000868
:10060000CD080008550800087D0800080508000806
:100610002D080008210C0008490C00082D330008A3
:1006200055330008780700200D3A00080025FFF731
:10063000AFFEDFF8C481DFF8BCB140F6C41AA8F100
:1006400008096E4802F0CAFEA9F8020002F05CFD3B
:10065000B8B1012208216A4801F01DF900273C4683
:100660003E4602F095FC002D42DDB8F8081001F17D
:1006700028018AB2A8F80820524546D9A8F808A04F
:1006800043E0322001F000F8002208215C4801F02C
:1006900002F900205D4601462954401CC0B20828DA
:1006A000FAD302F0CDFCE879C0F180004700A879C8
:1006B00044006879A4F58074C0F180004600287970
:1006C000450007F13100A5F58075622800D80027A4
:1006D00006F13100622800D8002604F131006228BA
:1006E00000D8002405F131006228BCD800250CE0B8
:1006F0000BDAB8F808104FF4FA72283989B2A8F862
:100700000810914201D2A8F80820002E0BDDB8F89D
:10071000061001F128018AB2A8F8062052450FD927
:10072000A8F806A00CE00BDAB8F806104FF4FA723D
:10073000283989B2A8F80610914201D2A8F80620FB
:10074000002F0BDDB8F8041001F128018AB2A8F8D7
:10075000042052450FD9A8F804A00CE00BDAB8F831
:1007600004004FF4FA72283880B2A8F804009042CE
:1007700001D2A8F80420002C0BDDB8F8021001F11A
:1007800028018AB2A8F8022052450FD9A8F802A081
:100790000CE00BDAB8F802104FF4FA72283989B27B
:1007A000A8F80210914201D2A8F802209BF8030099
:1007B00080071BD4142000F067FF99F80010491C33
:1007C000C9B289F80010CA0702D0A8F800A003E057
:1007D00040F2DC53A8F80030074B4FF42F720C3373
:1007E00002291A8002D1002189F80010322000F07D
:1007F0004BFF26E70C000020200000207807002097
:10080000000C014080780021012802D0202803D16B
:1008100001E00A2100E0142103481422C0880844A2
:1008200081B2032002F0F6BF200000208078002172
:10083000012802D0202803D101E00A2100E0142180
:1008400003481422C088401A81B2032002F0E2BF9C
:100850002000002080780021012802D0202803D128
:1008600001E00A2100E01421034814228088084492
:1008700081B2022002F0CEBF20000020807800214B
:10088000012802D0202803D101E00A2100E0142130
:10089000034814228088401A81B2022002F0BABFB5
:1008A0002000002080780021012802D0202803D1D8
:1008B00001E00A2100E01421034814224088084482
:1008C00081B2012002F0A6BF200000208078002124
:1008D000012802D0202803D101E00A2100E01421E0
:1008E000034814224088401A81B2012002F092BFCE
:1008F0002000002001F090BF01F050BF0148406A85
:100900007047000054000020FEE700002DE9F0478A
:10091000DFF8B080DFF8B0900546002707EB470608
:1009200008EBC604EA68E16891423BD1606938B1DE
:10093000A97818F83600B1EB101F33D100200CE075
:1009400018F8360000092DD0687848B92AE029182F
:100950006269C9781154401CC0B2A9788142F6D8A6
:10096000E86800F0ACF92069414618B911F8360082
:10097000000717D031F83600C0F3413222B1012A06
:1009800008D0022A0ED113E0A188B9F80200401A5B
:10099000E08007E0C0F34122022A03D140F4C060A6
:1009A00028F836007F1CFFB21D2FB7D3BDE8F087B3
:1009B00020F4C06040F4807000F5007028F8360024
:1009C000E2E70000FC09002038000020054910B5CE
:1009D0004FF4FA60488001F00BFFBDE81040FFF7CC
:1009E0008BBF0000380000202DE9FF47684600F06B
:1009F000EBF810B16846FFF789FF654C607850B19D
:100A000032226188A08802F0EAFF002801D000208D
:100A10006070BDE8FF8700F051F9DFF878810027AA
:100A20004FF000594FF0805A07EB470638F8360070
:100A3000C1057FD5424610F4C05F04D0C0F3C12089
:100A400001281FD076E0C0F34121012904D00229FA
:100A50000CD003290DD06DE007EB470002EBC00579
:100A6000174628462AE06088E88068E008EBC6055B
:100A700037E002EBC60320F4C060598821F4FE7110
:100A8000598055E008EBC6056188AA88E88802F01D
:100A9000A6FF28B138F83600C0F34120012808D05D
:100AA00038F83600C0F3412102291AD0032935D085
:100AB00040E007EB4700474608EBC00002F086FE27
:100AC0006888C0F382110529CDD237F83610C1F3FA
:100AD00041210129C7D109EB70204FEAF05068800D
:100AE000C1E7688820F4E0706880AA88E888618897
:100AF00002F075FFF0B138F8361021F4C06101F54D
:100B0000007128F836106888C0F383010A2911D2D1
:100B10000AEBB0104FEAB06068800BE0698820F4FF
:100B2000C06021F4FE7169806188E98000F5007081
:100B300028F836007F1CFFB21D2FFFF475AF00258B
:100B40002E46474606EB460007EBC0014888C0F337
:100B50008212052A04D320F4E07045F00205488093
:100B6000FFF7CCFE08B145F004055DB1FFF7C2FE0A
:100B7000FFF7C2FE6088A0800120607020782843C3
:100B8000207046E7761CF6B21D2EDBD3F6E7000098
:100B900038000020FC09002030B587B014460A9ABE
:100BA0001D46082A00D90822019002910090CDE943
:100BB000034206AB2A466946024800F093F807B0A4
:100BC00030BD00005400002030B50B490A784B7846
:100BD0009A4201D1002030BD01EB0212121D3CCA25
:100BE00080E83C0008781422401CB0FBF2F302FBC2
:100BF00013000870012030BD04040020074A00EBF8
:100C0000400132F8310010F4C05F05D120F4C0601B
:100C100000F5007022F8310070470000FC09002048
:100C200080780021012802D0202803D101E00A2188
:100C300000E01421034814220088084481B20020F7
:100C400002F0E8BD2000002080780021012802D0B9
:100C5000202803D101E00A2100E0142103481422D6
:100C60000088401A81B2002002F0D4BD200000208C
:100C7000014800F031BC0000C0030020014800F032
:100C80002BBC00007C030020014800F025BC0000C4
:100C9000B0020020014800F01FBC00006C020020E0
:100CA000014800F019BC0000F4020020014800F0E7
:100CB00013BC00003803002070477047704770472E
:100CC00090F82020012A07D0022A05D0416A41F479
:100CD0008021416201207047006842690A434261F5
:100CE00000207047F0B590F820500468A468012DEA
:100CF00005D0022D03D0416A41F4802153E014F065
:100D0000406F01D1E5004BD5C4F30164022C03D937
:100D1000416A41F4000146E00125A5401D608D684F
:100D20004FF4C0739DB1CE6835434E6845EAC605A1
:100D3000066803EB0417F5514FF4C275076805EB1D
:100D400004150E697E51097D012905D009E00E8840
:100D5000CD6845EA4655EBE701684E5946F4807682
:100D60004E511179D2F805504FF4C67641EA052567
:100D7000016806EB04168D511178D2F801204FF46A
:100D8000C47541EA0221026805EB0415515100685F
:100D900003EB0411425842F0010242500020F0BD22
:100DA000416A41F4001141620120F0BD10B590F894
:100DB00020300268012B07D0022B05D0416A41F494
:100DC00080214162012010BDD2F8000240F00100F4
:100DD000C2F80002087D00F01F0301209840D2F8FD
:100DE0001C328343C2F81C32CB69B3B9D2F80C323F
:100DF0008343C2F80C328C894B6864F31F434C69FF
:100E000002EBC404C4F840320C890B6864F31F433E
:100E10004C6902EBC404C4F84432CB69012B16D1EF
:100E2000D2F80C320343C2F80C320C884B6864F3DE
:100E30001F434C6902EBC404C4F840320C89CB68F0
:100E400064F31F434C6902EBC404C4F844328B6959
:100E5000002BD2F804320FD053EA0003C2F8043258
:100E60000B69002BD2F8143208D00343C2F81432B5
:100E7000096A012904D008E08343EFE78343F5E7DB
:100E8000D2F81C120143C2F81C12D2F8000220F062
:100E90000100C2F80002002010BD704730B590F884
:100EA0002040012C05D0022C03D0416A41F480215E
:100EB0005DE00468002955D02469A40754D04FF49C
:100EC000D874056804EB01142D5915F004059560DC
:100ED00005682D594ED0ED08556005682C5904F071
:100EE0000204D4604FF4DA74056804EB01142D5940
:100EF00005F00F05156105682D59C5F307259561A6
:100F000005682C59240C54614FF4DC72046802EB20
:100F10000112A4581C700468A458240A5C70046868
:100F2000A458240C9C700468A258120EDA704FF476
:100F3000DE72046802EB0112A4581C710468A45804
:100F4000240A5C710468A458240C9C710468A2589B
:100F5000120EDA71006881B1016941F0200101616E
:100F6000002030BDE468A8E7416A41F40011416205
:100F7000012030BD6D0D1560AFE7C16841F0200163
:100F8000C160EDE72DE9F05F054600680024466981
:100F9000D0F804908768D0F80CB0D0F810A0D0F842
:100FA0001880F10748D0F90714D001218160B807F3
:100FB00003D5284600F03DFA0CE0780702D54FF43F
:100FC000006407E0380702D54FF4805402E0284659
:100FD00000F02EFAF80516D529684FF48070886065
:100FE000B80503D5284600F026FA0CE0780502D5AE
:100FF00044F4005407E0380502D544F4804402E08C
:10100000284600F017FAF80316D529684FF4803007
:101010008860B80303D5284600F00FFA0CE0780387
:1010200002D544F4004407E0380302D544F4803488
:1010300002E0284600F000FA300707D55FEACB60EF
:1010400004D52968102044F40074C86070074FF07C
:10105000080707D55FEA0B7004D52868C7602846E3
:1010600000F066F9B00706D52868C068800702D08E
:10107000284600F05FF9700607D55FEACA6004D51C
:101080002968102044F480640861B00607D55FEA3F
:101090000A7004D528680761284600F099F9F0061F
:1010A00006D528680069800702D0284600F091F92B
:1010B000B00308D55FEAC96005D5296810204860EB
:1010C000284600F087F9F00307D55FEA097004D5D8
:1010D00028684760284600F0B1F9300446D55FEA39
:1010E000497040D5F00504D55FEAC87001D044F0DE
:1010F0000104B00504D55FEA887001D544F002040C
:10110000700504D55FEA487001D544F00404300549
:1011100029D518F0700F26D008F07000402815D09F
:1011200006DC102809D020280AD0302816D10AE081
:1011300050280ED0602811D10EE044F008040DE0D4
:1011400044F010040AE044F0200407E044F04004B6
:1011500004E044F0800401E044F48074286881696C
:1011600021F070018161296804204860002C05D0BD
:10117000686A204368622846FFF78FFEBDE8F09F4B
:1011800070B5040003D094F8200010B104E00120F1
:1011900070BD204600F082F82068016821F002014D
:1011A000016000F07DFB0546052604E000F078FBB9
:1011B000401B0A2811D8206840688007F6D42068B0
:1011C000016841F00101016000F06AFB05460BE097
:1011D00000F066FB401B0A2806D9606A40F4003024
:1011E000606284F82060D2E720684068C007EFD0D2
:1011F000207E0128206801683DD021F08001016037
:10120000607E01282068016838D021F0400101602B
:10121000A07E01282068016833D021F02001016000
:10122000E07E0128206801682ED041F010010160A5
:10123000207F01282068016829D021F00801016081
:10124000607F01282068016824D021F0040101603A
:10125000D4E902010843D4E9041211430843616848
:10126000491E08432168C86100206062012084F89B
:101270002000002070BD41F08001C0E741F0400136
:10128000C5E741F02001CAE721F01001CFE741F0A6
:101290000801D4E741F00401D9E7000010B586B099
:1012A0000021009101910291039100681C4988423C
:1012B00033D11C48C16941F00071C161C16901F0BD
:1012C00000710491816941F0080181618069164CC7
:1012D00000F0080004904FF48070009069462046AA
:1012E00000F0E4F9601500900220019003200390C3
:1012F0006946204600F0DAF90C48416821F4C04103
:1013000041F0E06141F48041416000221146142027
:1013100000F032FB142000F021FB06B010BD0000ED
:101320000064004000100240000C01400000014039
:1013300070470000F0B58DB00BAB04AA0021FFF799
:10134000ADFD002833D106980799C0B28DF8000092
:101350008DF8011008998DF8021004280ED0049819
:10136000039000200BAB02464FEA0D019DF80240AE
:10137000844205D90D181C5CEC7003E00598EFE77A
:101380000C18E270401CC0B20828EFD30F48142696
:101390009DE83C0041784F1CB7FBF6FC06FB1C7730
:1013A00090F800C0674504D1684601F0BCFF0DB05D
:1013B000F0BD00EB0111091D81E83C004178491C9A
:1013C000B1FBF6F206FB12114170F0E704040020B5
:1013D000704770477047000070B5044690F82000D1
:1013E000012804D0606A40F40020606218E0022006
:1013F00084F820002068016821F00101016000F0FC
:101400004FFA05460EE000BF00F04AFA401B0A28DA
:1014100008D9606A40F400306062052084F820003A
:10142000012070BD20684068C007EDD1606270BDCA
:1014300070477047704770477047704770470000AB
:1014400010B590F821100024022903D004218163F3
:1014500001243DE001680A6822F00E020A6001687A
:101460000A6822F001020A601A4A0168914201D119
:10147000012121E0174A1432914201D110211BE0D1
:10148000144A2832914201D1891515E0114A3C32A3
:10149000914201D189140FE00E4A5032914202D19B
:1014A0004FF4803108E00B4A6432914202D14FF48C
:1014B000801101E04FF08071064A083A5160012125
:1014C00080F82110002180F82010416B01B188477D
:1014D000204610BD080002402DE9F05FC16B0C688A
:1014E00001680B68D0F840C0042202FA0CF2494DA2
:1014F000DFF824A1494E4A4FDFF828B1DFF828E190
:1015000022422CD05A072AD50A68920603D40A68C8
:1015100022F004020A600168A94201D1042219E004
:10152000514501D1402215E0B14202D14FF4806211
:1015300010E0B94202D14FF480420BE0594502D18C
:101540004FF4802206E0714502D14FF4800201E0A1
:101550004FF080622F4908394A60C16A3BE04FF082
:10156000020808FA0CF818EA040F4FF000094FF0CF
:10157000010235D05FEA837832D50B689B0605D42B
:101580000B6823F00A030B6080F821200168A94250
:1015900001D1022219E0514501D1202215E0B142CA
:1015A00002D14FF4007210E0B94202D14FF4005260
:1015B0000BE0594502D14FF4003206E0714502D1EB
:1015C0004FF4001201E04FF00072124908394A60EE
:1015D00080F82090816A00291AD0BDE8F05F0847A2
:1015E000082505FA0CF5254212D01B0710D50B680B
:1015F00023F00E030B6090F84010C36B02FA01F168
:101600005960826380F8212080F82090016BE2E726
:10161000BDE8F09F080002401C000240300002407C
:1016200044000240580002406C00024030B528B32C
:1016300008C8134914221944B1FBF2F18900C163AF
:1016400010498163022141771A6843F6F0718A4399
:10165000D0E900142143D0E902452C432143046919
:1016600021434469214384692143114319600021C6
:101670004163012242770177084630BD012030BD29
:10168000F8FFFDBF0000024070B5044600F008F905
:101690000546601C02D004480078044400F000F9BC
:1016A000401BA042FAD370BD480000202DE9F84F3E
:1016B000DFF8B891002409F1040A0AF1040B23466B
:1016C0000F270BF1040EC9E00125A5402A40AA42CC
:1016D0007DD1674ED1F804C0ACEB0608B44532D0DA
:1016E00014DCBCF1030F3AD009DCBCF1000F2AD0A6
:1016F000BCF1010F1CD0BCF1020F31D11DE0BCF1D7
:10170000110F17D0BCF1120F2AD119E0B8F5881FBC
:1017100019D006DCB8F5803F15D0B8F5801F1FD171
:1017200011E0B8F5001F0ED0B8F5041F18D10AE07B
:10173000CB6815E0CB681B1D12E0CB6808330FE0C7
:10174000CB680C330CE08B682BB1012B4FF00803F6
:1017500003D0456104E0042302E0056100E00023BA
:10176000FF2A01D8064601E000F104064FEA84058D
:1017700001D9A5F12005D6F8008007FA05FC28EA72
:101780000C0803FA05F548EA0508C6F800804D681C
:10179000ED0062D5374DAE6946F00106AE61AD6928
:1017A00024F0030605F001050095334D06EB050C0A
:1017B000DCF80850A607360F07FA06F825EA0805F0
:1017C000DFF8B880404503D14FF0000817E044E04F
:1017D000DFF8AC80404502D14FF001080FE0DFF8A0
:1017E000A480404502D14FF0020808E0DFF898805D
:1017F000404502D14FF0030801E04FF0040808FA19
:1018000006F848EA0508CCF808804D68D9F8006069
:10181000ED034D4601D5164300E096432E604D681A
:10182000DAF80060AD03554601D5164300E0964353
:101830002E604D68DBF80060ED025D4601D5164371
:1018400000E096432E604D68DEF80060AD027546FC
:1018500001D5164300E096432E60641C0D682A46AD
:10186000E5407FF431AFBDE8F88F0000000401408F
:10187000000011100010024000000140000801406B
:10188000000C014000100140001401408068084035
:1018900000D0012070470AB1016170470904FBE7DD
:1018A00001488068704700004800002002488168B5
:1018B000027811448160704748000020074810B545
:1018C000016841F010010160032000F075F800206C
:1018D00000F006F800F024F8002010BD00200240BF
:1018E00070B50D4D04464FF47A712878B1FBF0F0D5
:1018F0000A490968B1FBF0F000F086FB48B9102CEA
:1019000007D200222146501E00F036F800206C60FD
:1019100070BD012070BD00004800002000000020C4
:101920000C4808B5816941F001018161816901F0CC
:1019300001010091C16941F08051C161C06900F0AD
:10194000805000900448416821F0E06141F000714E
:10195000416008BD0010024000000140002809DB82
:1019600000F01F02012191404009800000F1E020B9
:10197000C0F8001170470000F0B40E4B1B680C4615
:10198000C3F30223C3F10705042D00D90425191D53
:10199000072901D2002300E0DB1E012606FA05F12B
:1019A000491E214099409E40761E16403143F0BCAE
:1019B00002F008BA0CED00E0064900F007020868E2
:1019C0004FF6FF03184040EA0220034A1043086024
:1019D000704700000CED00E00000FA052DE9F0472B
:1019E0000F46050061D0434E306800F00700B84252
:1019F00009D2306820F0070038433060306800F0CA
:101A00000700B84251D128683B4C810712D54007E6
:101A100003D5606840F4E06060602878000703D573
:101A2000606840F4605060606068A96820F0F00071
:101A3000084360602878C00728D06868012810D063
:101A40002168022810D0890700292EDA616821F068
:101A5000030101436160FFF723FF804641F28839AB
:101A60000DE021688903EFE78901EDE7FFF718FF33
:101A7000A0EB0801494502D90320BDE8F087606862
:101A8000696800F00C00B0EB810FEFD1306800F016
:101A90000700B8420BD9306820F0070038433060A7
:101AA000306800F00700B84201D00120E5E728784F
:101AB000400705D56068E96820F4E060084360608D
:101AC0002878000706D56068296920F4605040EA4C
:101AD000C100606000F038F86168084AC1F3031182
:101AE000515CC8400649086006480068FFF7F8FEE8
:101AF0000020C2E70020024000100240A040000881
:101B0000000000204C000020044805490068496896
:101B1000044AC1F30221515CC84070470000002014
:101B200000100240B04000080448054900684968B8
:101B3000044AC1F3C221515CC84070470000002034
:101B400000100240B040000812A185B00FC98DE816
:101B50000F0014A0144A006804905168134801F063
:101B60000C03042B10D0082B0ED1C1F38343C903FF
:101B70001DF803000AD5516804AAC1F34041515C25
:101B80000A4A5043B0FBF1F005B07047084948439A
:101B9000FAE7000002030405060708090A0B0C0D0A
:101BA0000E0F1010010200000010024000127A0017
:101BB00000093D002DE9F84F040070D02078C04D99
:101BC000C00749D06868C0F38100012807D0686861
:101BD000C0F38100022809D16868C00306D52868CF
:101BE000800339D560680028E7D035E06068B0F53B
:101BF000803F0BD010B1B0F5A02F11D0286820F491
:101C000080302860286820F4802002E0286840F4B2
:101C100080302860606890B1FFF742FE06460AE017
:101C2000286840F480202860F0E700BFFFF738FE06
:101C3000801B642873D828688003F7D50CE0FFF771
:101C40002FFE064605E000BFFFF72AFE801B642832
:101C5000F0D828688003F7D420789A4E80074FF098
:101C600001094FF0000839D5686810F00C0F07D053
:101C70006868C0F38100022809D16868C00306D4EF
:101C80002868800714D52069012808D110E0206950
:101C9000B0B1C6F80090FFF703FE074605E00AE181
:101CA000FFF7FEFDC01B0228C4D828688007F7D5BF
:101CB0002868616920F0F80040EAC10028600DE062
:101CC000C6F80080FFF7ECFD074604E0FFF7E8FDEB
:101CD000C01B022823D828688007F7D42078000783
:101CE0002CD57948A169D9B1C0F80090FFF7D8FD8B
:101CF000074604E0FFF7D4FDC01B02280FD8686A2E
:101D00008007F7D571484FF4FA510068B0FBF1F045
:101D1000009000BF0098411E0091FAD20EE080E0D2
:101D2000C0F80080FFF7BCFD074604E0FFF7B8FDF0
:101D3000C01B022875D8686A8007F7D4207840074E
:101D400060D5E8690027C00008D4E86940F08050F9
:101D5000E861E869012700F0805000905C48016864
:101D6000C90513D40168834641F480710160FFF70F
:101D700097FD824606E000BFFFF792FDA0EB0A0048
:101D800064284ED8DBF80000C005F5D5E0680128CE
:101D90000AD008B1052813D0286A20F00100286273
:101DA000286A20F0040002E0286A40F0010028625E
:101DB000E06841F2883B98B1FFF772FD82460BE084
:101DC000286A40F004002862EEE700BFFFF768FDD4
:101DD000A0EB0A0159455AD8286A8007F6D50CE0CD
:101DE000FFF75EFD824605E0FFF75AFDA0EB0A0112
:101DF00059454CD8286A8007F6D41FB1E86920F00D
:101E00008050E861E06988B36968C1F38101022903
:101E100044D00228C6F8608004D0FFF741FD044694
:101E200038E034E0FFF73CFD074604E0FFF738FDFB
:101E3000C01B02282BD828688001F7D4206AB0F58F
:101E4000803F05D16868A16820F4003008436860CD
:101E5000D4E908010843696821F4741108436860F3
:101E6000C6F86090FFF71CFD044606E025E000BFC1
:101E7000FFF716FD001B022809D828688001F7D556
:101E80001BE000BFFFF70CFD001B022802D9032056
:101E9000BDE8F88F28688001F4D40EE00128F7D05F
:101EA0006868226A00F48031914204D1616A00F4CA
:101EB0007010884201D00120EAE70020E8E7000026
:101EC0000010024000004242800442420000002014
:101ED0000070004070B5040005D00025A56294F89C
:101EE000510010B106E0012070BD84F8505020462A
:101EF00000F02EF8022084F851002068016821F0DB
:101F000040010160D4E901010843D4E903121143FF
:101F1000084361690843218B01F400710843E169BA
:101F20000843216A0843A16A084321680860A06940
:101F3000042101EA1040216848602068C16921F449
:101F40000061C1616565012084F85100002070BD09
:101F500030B585B000240094019402940394254D7B
:101F60000368254802210322AB421AD1836943F456
:101F700080538361836903F480530493836943F03E
:101F80000403836180691D4D00F004000490A020CB
:101F9000CDE90001039269462846FFF787FB402000
:101FA0001EE0174DAB4222D1C36943F48043C361A5
:101FB000C36903F480430493836943F00803836196
:101FC0008069104D00F0080004904FF42040CDE9E6
:101FD0000001039269462846FFF768FB4FF48040F2
:101FE000CDE90004694628460294FFF75FFB05B07F
:101FF00030BD0000003001400010024000080140E8
:1020000000380040000C014010B5401EB0F1807F48
:1020100001D3012010BD4FF0E02460610F21601753
:1020200001F0D0FE0020A06107202061002010BD3B
:102030007047704770B590F83C20012A19D00124F0
:1020400000F83C4F0222427050F83C3C5A689D68B0
:1020500022F070060A684968324325F0800529435A
:102060005A6050F83C2C9160447000210170084681
:1020700070BD022070BD10B5040003D094F83D007F
:1020800010B107E0012010BD002084F83C0020467C
:1020900000F00CF8022084F83D00211D206801F0BA
:1020A00033FC012084F83D00002010BD08B5016814
:1020B0001448B1F1804F14D0134A914220D1C16924
:1020C00041F00201C161C069002200F002000090ED
:1020D00011461D20FFF750FC1D20BDE80840FFF70A
:1020E0003DBCC16941F00101C161C069002200F03D
:1020F0000100009011461C20FFF73EFC1C20ECE77D
:1021000008BD000000100240000400400168CA68D9
:1021100042F00102CA600068816801F007010629E7
:1021200003D0016841F0010101600020704770B5E3
:10213000044690F83C00012817D0012584F83C5053
:10214000022084F83D002068826822F0770222F4A1
:102150007F4282600868502830D00DDC20284DD0A6
:1021600005DC98B310283BD148E0022070BD302830
:1021700044D0402834D139E0602828D0702806D0D7
:10218000B0F5805F2CD0B0F5005F29D10AE0CB68B4
:10219000D1E90121206801F0EDFB2068816841F060
:1021A000770109E0CB68D1E90121206801F0E2FB69
:1021B0002068816841F48041816011E0CA68496803
:1021C000206801F0E9FB5021206807E016E0CA68AA
:1021D0004968206801F0F1FB6021206801F0D4FB20
:1021E00084F83D50002084F83C0070BDCA684968FE
:1021F000206801F0D1FB40212068EFE7226801460A
:102200001046EBE7704770B50446006801694FF06F
:102210000005C943890715D4C168C943890711D48A
:10222000E91E01610120207720688069800720462F
:1022300002D0FFF7E7FF04E000F098F8204600F036
:1022400096F8257720680169C943490717D4C16802
:10225000C943490713D46FF00401016102202077BC
:102260002068806910F4407F204602D0FFF7CAFF43
:1022700004E000F07BF8204600F079F8257720682C
:102280000169C943090716D4C168C943090712D4B3
:102290006FF008010161042020772068C069800781
:1022A000204602D0FFF7AEFF04E000F05FF82046C2
:1022B00000F05DF8257720680169C943C90617D485
:1022C000C168C943C90613D46FF010010161082029
:1022D00020772068C06910F4407F204602D0FFF7C5
:1022E00091FF04E000F042F8204600F040F8257726
:1022F00020680169C943C90708D1C168C943C90732
:1023000004D1891E0161204600F032F8206801697D
:10231000C943090609D4C168C943090605D46FF049
:10232000800101612046FFF783FE20680169C943EF
:10233000490609D4C168C943490605D46FF0400174
:102340000161204600F02CF820680169C943890624
:102350000BD4C168C943890607D46FF0200101611D
:102360002046BDE87040FFF764BE70BD70477047FF
:1023700008490A68016808488A4201D1006804E0F7
:10238000064A12688A4203D14068002800D00047FC
:10239000704700006C010020040000202C01002088
:1023A0007047704770B5026804461068D168536979
:1023B00010F00F0F50D003F0010501F49076354373
:1023C0005DD0C20705D0CA0503D5E26B42F0010219
:1023D000E263420705D5DA0703D0E26B42F002025E
:1023E000E263820705D5DA0703D0E26B42F004020C
:1023F000E263020705D5DA0703D0E26B42F0080278
:10240000E263E26B002A33D0800604D5880602D549
:10241000204601F061FB20684069E16BC0F3801049
:10242000090700D428B3204601F048FB2068416921
:1024300049061AD5416921F040014161606BA0B1A4
:102440001B494163606BFEF7FBFF002810D0606BF7
:10245000416BBDE870400847830610D58B060ED54A
:102460002046BDE8704001F037BB2046FFF799FFDA
:1024700070BD2046FFF795FF0020E06370BD0306A6
:1024800006D50B0604D52046BDE8704001F0CCBB54
:102490004006F3D54806F1D5D168204621F0400129
:1024A000D160202184F8391000F077F970BD000068
:1024B000AD3A000870B5040004D094F83900002546
:1024C00010B106E0012070BD84F83850204600F0BD
:1024D00023F8242084F839002068C16821F40051D1
:1024E000C160204601F044FB2068016921F490415D
:1024F00001612068416921F02A0141612068C168B9
:1025000041F40051C160E563202084F8390084F86B
:102510003A00002070BD00002DE9F04786B000258C
:1025200000950195029503950446DFF84882D0F89E
:1025300000C0914802210322904B202780264FF4AF
:10254000806A4FF01009C44557D1D0F818C04CF438
:10255000804CC0F818C0D0F818C00CF4804CCDF8EE
:1025600010C0D0F818C04CF0040CC0F818C0806936
:10257000039200F0040004900802CDE900016946CE
:1025800098461846FFF792F8CDE900A569464046FF
:102590000295FFF78BF8DFF8EC8179494046C0E9F6
:1025A0000015C0E90256C8F81050C8E90557C8F828
:1025B0001C50FFF73BF808B1FEF77FFB714FC4F8E2
:1025C00034804437C8F82440C7E902563D616C485E
:1025D0007D61BD611438FD61C7E900093846FFF728
:1025E00025F808B1FEF769FB276300221146252074
:1025F0007C62FFF7C1F925205EE0DFF88C81C445DD
:102600005FD1D0F81CC04CF4003CC0F81CC0D0F81E
:102610001CC00CF4003CCDF810C0D0F818C04CF031
:10262000040CC0F818C08069039200F00400049004
:102630000420CDE90001694698461846FFF736F8B0
:102640000820CDE90005694640460295FFF72EF8BF
:10265000DFF830814A4908F1880840461431C0E962
:102660000015C0E90256C8F81050C8E90557C8F867
:102670001C50FEF7DBFF08B1FEF71FFB414FC4F80B
:102680003480CC37C8F82440C7E902563D613C4845
:102690007D61BD612830FD61C7E900093846FEF75C
:1026A000C5FF08B1FEF709FB27630022114626206B
:1026B0007C62FFF761F92620FFF750F906B0BDE80C
:1026C000F087324B9C45F9D1C36943F48023C36141
:1026D000C36903F480230493836943F0080383618F
:1026E0008069CDE900A100F00800CDE90320DFF802
:1026F000A08069464046FEF7D9FF4FF40060CDE95F
:102700000005694640460295FEF7D0FFDFF8848059
:102710001B4940462839C0E90015C0E90256C8F8EF
:102720001050C8E90557C8F81C50FEF77FFF08B1E4
:10273000FEF7C3FA174FC4F834804437C8F8244072
:10274000C7E902563D610E487D61BD613C38FD61BF
:10275000C7E900093846FEF769FF08B1FEF7ADFA90
:1027600027630022114627207C62FFF705F9272006
:10277000A2E70000003801400010024000080140BC
:10278000580002406C020020004400400048004015
:10279000000C01407C0300207047704700B58BB0EF
:1027A00000200121CDE906010590009001900290E2
:1027B000039004900E20CDE9081069460A48FEF700
:1027C000F5FA08B1FEF779FA0748FEF705FE08B1F9
:1027D000FEF773FA02210448FEF772FA002801D0CE
:1027E000FEF76BFA0BB000BD54000020FEE70000BE
:1027F00010B500244FF42E710648FDF7ACFC0549D6
:10280000204600F0BBFD034900F06AFE1D2800D9F8
:10281000FEE710BDFC090020104810B50E4901600C
:102820000921416000214FF400328160C0E90312A8
:102830004FF4401242610176417681760122C276E0
:1028400001774177FEF79CFC002803D0BDE81040DB
:10285000FEF733BA10BD00000064004054000020B1
:102860001D4808B5416941F00101416140690022FC
:1028700000F00100009011460C20FFF77DF80C20BD
:10288000FFF76CF8002211460D20FFF775F80D20B8
:10289000FFF764F8002211460E20FFF76DF80E20B6
:1028A000FFF75CF8002211460F20FFF765F80F20B4
:1028B000FFF754F8002211461020FFF75DF81020B2
:1028C000FFF74CF8002211461120FFF755F8BDE83C
:1028D00008401120FFF742B8001002402DE9F047F0
:1028E00086B00025474800950195029503958169BA
:1028F00041F010018161816901F010010491816949
:1029000041F020018161816901F020010491816918
:1029100041F004018161816901F004010491816940
:1029200041F0080181618069DFF8DC8000F0080077
:10293000049000224FF489714046FEF7ACFFDFF8A7
:10294000CCA041F20F07002239465046FEF7A3FF04
:10295000DFF8BC900122C0214846FEF79CFF002210
:1029600039114846FEF797FF0122D1034046FEF792
:1029700092FF4FF46040CDE90005012469460294BE
:102980004846FEF793FE40F20F20CDE90005694668
:1029900048460295FEF78AFECDE900456946404665
:1029A0000294FEF783FE48F20200CDE900040226FD
:1029B000CDE9024669464046FEF778FE4FF488703E
:1029C0008DE8710069464046FEF770FECDE900745F
:1029D000CDE9024669465046FEF768FE4FF4E070C6
:1029E0008DE8710069464846FEF760FEF020CDE9AB
:1029F0000005694602945046FEF758FE06B0BDE851
:102A0000F08700000010024000080140000C014067
:102A100000100140104810B50E4901604FF482715A
:102A2000416000218160C1604FF400720161C0E922
:102A300005120822C0E90721416281620A21C162B0
:102A4000FFF748FA002803D0BDE81040FEF735B97B
:102A500010BD0000003001407C0000200F4810B580
:102A60000D4901604FF48271416000218160C160B5
:102A70004FF400720161C0E90512C1610162416257
:102A800081620A21C162FFF725FA002803D0BDE860
:102A90001040FEF712B910BD00380040D4000020ED
:102AA00010B586B000241648009401940294039453
:102AB00004944FF08041059401604721C0E901145E
:102AC00040F2E731C0E903148461FFF7D4FA08B19A
:102AD000FEF7F3F84FF48050009069460848FFF77E
:102AE00026FB08B1FEF7E9F8049404A9044805940C
:102AF000FFF7A0FA002801D0FEF7DFF806B010BDFE
:102B00002C01002010B586B00024174800940194D1
:102B10000294039404941349059401604721C0E989
:102B2000011440F2E731C0E903148461FFF7A3FA0E
:102B300008B1FEF7C2F84FF48050009069460A4889
:102B4000FFF7F5FA08B1FEF7B8F8049404A90648AF
:102B50000594FFF76FFA002801D0FEF7AEF806B033
:102B600010BD0000000400406C0100200C4810B5AE
:102B70000A4901604FF4E1314160002181600C227B
:102B8000C160C0E904128161C161FFF793FC0028B4
:102B900003D0BDE81040FEF790B810BD00380140EA
:102BA000AC0100200C4810B50A4901604FF4E13136
:102BB0004160002181600C22C160C0E90412816182
:102BC000C161FFF777FC002803D0BDE81040FEF795
:102BD00074B810BD00440040EC0100200C4810B552
:102BE0000A4901604FF4E1314160002181600C220B
:102BF000C160C0E904128161C161FFF75BFC00287C
:102C000003D0BDE81040FEF758B810BD00480040A2
:102C10002C020020FEE770472DE9F04704460069CA
:102C2000A0630B468046E668114618462661FDF70C
:102C3000EFFA0546E06094F83000012802D002283F
:102C40002DD067E031462846FDF7E2FAA168FDF78E
:102C5000E5FA064628462168FDF7E0FA07462846C9
:102C60006168FDF7DBFA6169FDF780FA6061A169CF
:102C7000FDF73AFBA06908D380F000406169FDF7D9
:102C800033FB03D2A06980F00040606131463846D2
:102C9000FDF76CFA6169FDF769FAE0613AE03146E7
:102CA0002846FDF7B5FA2168FDF7B8FA81462946AE
:102CB0006068FDF7B3FA0746606101213046FDF711
:102CC000DFFA2946FDF7A7FA4146FDF74FFAA1685A
:102CD000FDF7A4FA05463846A169FDF705FBA06992
:102CE00008D380F000406169FDF7FEFA03D2A069C5
:102CF00080F00040606148466169FDF737FA294677
:102D0000FDF734FA01466062E06AFDF72FFAA0622F
:102D1000E061E062D4E90701FDF7E6FA206A08D332
:102D200080F00040E169FDF7DFFA03D2206A80F00D
:102D30000040E061BDE8F08770B504461D463C30B8
:102D4000FFF76AFF2A462046A16DFFF765FFE0699D
:102D5000A06770BD2DE9FE4F2C4C2F4E012500942D
:102D60002B4B2C4A31462D48CDE9014500F062F845
:102D7000DFF8ACA02948002300941A4651463C30A5
:102D8000CDE9014500F056F8264FDFF89C80234836
:102D900000943B46424631467C30CDE9014500F087
:102DA00049F8DFF888901D4800944B4600225146B0
:102DB000B830CDE9014500F03DF8184800943B4695
:102DC00042463146F830CDE9014500F033F8009431
:102DD0004B46002251461648CDE9014500F02AF83D
:102DE000134800943B46424631464030CDE9014508
:102DF00000F020F80E4800944B46002251467C30EB
:102E0000CDE9014500F016F8BDE8FE8F00009143C2
:102E10008FC2753E0AD7A33C6666E63E0C080020CA
:102E2000CDCCCC3ECDCC4C3D0AD7A33B3333B33EC7
:102E30004009002070B50DF1100C9CE8700080E88E
:102E40000E000021C16001618163C161056284617E
:102E5000416380F8306070BD2DE9F041494C0F4668
:102E6000012806D0022823D0032841D004287DD190
:102E700060E0454800F026FBE080FDF70DFA0646CD
:102E800041484089FDF711FA05463846FDF704FA36
:102E900001463D4833462A469430FFF74DFF3A48F5
:102EA0009430806FFDF706FA01B2374800F011FB4D
:102EB0003548183000F006FBE080FDF7EDF90646D6
:102EC000314818304089FDF7F0F905463846FDF7DE
:102ED000E3F9014633462A462C48FFF72DFF2B48DD
:102EE000806FFDF7E7F901B22748183000F0F1FADA
:102EF0002548303000F0E6FAE080FDF7CDF90646CF
:102F0000214830304089FDF7D0F905463846FDF7B5
:102F1000C3F901461D4833462A467C30FFF70CFFB3
:102F20001A487C30806FFDF7C5F901B21648303081
:102F300000F0CFFA1448483000F0C4FAE080FDF702
:102F4000ABF90446104848304089FDF7AEF9054614
:102F50003846FDF7A1F901460C4823462A46F830C9
:102F6000FFF7EAFE0948F830806F00E008E0FDF75F
:102F7000A1F9BDE8F04101B20348483000F0A9BA18
:102F8000BDE8F081180000207807002088080020A4
:102F900005480021FF22017041708270C2700171EA
:102FA00041718171C17170470C0000202DE9F84317
:102FB00006460120ADF800000024ADF800004FF4F3
:102FC00080781E4D4FF400794FF6FF772FE000BF59
:102FD000BDF80000304201D0012200E0002241464D
:102FE0002846FEF758FC012240212846FEF753FCF4
:102FF0000A2000F0D1FF002240212846FEF74BFCBA
:103000000A2000F0C9FF012240212846FEF743FCB8
:1030100049462846FEF73AFC18B1BDF800002043A7
:10302000C4B2BDF8000007EA4000ADF80000BDF8EA
:103030000000FF28CCD92046BDE8F88300100140ED
:103040002DE9FE4300208DF808000125ADF8005061
:103050002B4E024680213046FEF71DFC0120FFF773
:10306000A5FF4220FFF7A2FF264F38708DF80850C9
:103070003AE00024ADF800504FF400794FF6FF78A5
:1030800023E0012240213046FEF705FC0A2000F033
:1030900083FF002240213046FEF7FDFB0A2000F0AE
:1030A0007BFF012240213046FEF7F5FB49463046C2
:1030B000FEF7ECFB18B1BDF800002043C4B2BDF828
:1030C000001008EA4100ADF80000BDF80000FF283C
:1030D000D7D99DF808003C54102000F05DFF9DF802
:1030E0000800401C8DF808009DF808000828C0D38F
:1030F00003B03046BDE8F04301228021FEF7CBBB90
:10310000001001400C00002070B50D4D0022802100
:103110002846FEF7C0FB0120FFF748FF4220FFF7DB
:1031200045FF0446012280212846FEF7B4FB0548EE
:10313000732C047001D0012070BD002070BD000010
:10314000001001400C00002070B5624C012280216B
:103150002046FEF7A0FB012240212046FEF79BFB04
:103160000122150229462046FEF795FB00F0B4F82F
:1031700000F0B2F800F0B0F8002280212046FEF7FF
:103180008AFB102000F008FF0120FFF70FFF43200B
:10319000FFF70CFF0020FFF709FF0120FFF706FFF4
:1031A0000020FFF703FF0020FFF700FF0020FFF7DC
:1031B000FDFE0020FFF7FAFE0020FFF7F7FE0122D8
:1031C00080212046FEF767FB102000F0E5FE00227C
:1031D00080212046FEF75FFB0120FFF7E7FE442039
:1031E000FFF7E4FE0020FFF7E1FE0120FFF7DEFE1F
:1031F000EE20FFF7DBFE0020FFF7D8FE0020FFF7F0
:10320000D5FE0020FFF7D2FE0020FFF7CFFE0122FF
:1032100080212046FEF73FFB102000F0BDFE00227B
:1032200080212046FEF737FB102000F0B5FE01207C
:10323000FFF7BCFE4D20FFF7B9FE0020FFF7B6FEFA
:103240000020FFF7B3FE0120FFF7B0FE012280212E
:103250002046FEF720FB102000F09EFE0022802179
:103260002046FEF718FB102000F096FE0120FFF725
:103270009DFE4320FFF79AFE0020FFF797FE0020F7
:10328000FFF794FE5A20FFF791FE5A20FFF78EFEBB
:103290005A20FFF78BFE5A20FFF788FE5A20FFF7CF
:1032A00085FE012280212046FEF7F5FA102000F06D
:1032B00073FE012280212046FEF7EDFA0122402113
:1032C0002046FEF7E8FA29462046BDE87040012274
:1032D000FEF7E1BA0010014010B5114C0022802128
:1032E0002046FEF7D8FA102000F056FE0120FFF726
:1032F0005DFE4220FFF75AFE0020FFF757FE002038
:10330000FFF754FE0020FFF751FE012280212046E6
:10331000FEF7C1FABDE81040102000F03DBE0000ED
:10332000001001407047FDF7F1BA000080780021DD
:10333000012802D0202803D101E00A2100E0142155
:10334000034814220089084481B2042000F062BAC4
:103350002000002080780021012802D0202803D1FD
:1033600001E00A2100E01421034814220089401AD8
:1033700081B2042000F04EBA2000002070B50D4646
:1033800005490C6805E001462A46204600F028F869
:103390006469002CF7D170BD400000202DE9F04198
:1033A0000D4E0F46044618213568FCF7D4FE6780A1
:1033B0004FF4FA40A0810021E181A08005E0A54200
:1033C00002D10020BDE8F0816D69002DF7D1306891
:1033D000606101203460F5E74000002000897047FB
:1033E0002DE9F04794B0054601700F460220A91C54
:1033F000CDE90910CDE90B1000243221CDE90641B9
:1034000001260894CDE90204CDE904460190A8788C
:10341000904600900223224631460DA800F0E0FDC0
:1034200007EB470108EBC100791C8FB218220DA9E8
:10343000FCF778FE291DCDE90A414FF0080A05A8DE
:103440004FF00A09CDF830A0099480E850020894A2
:103450000194029403940494A8780090022300221B
:10346000FF210DA800F0BCFD07EB470108EBC100F0
:103470007F1CBFB218220DA9FCF754FECDE90AA4A7
:1034800005A80C9480E8500205F10C01CDE9084133
:10349000CDE9024601940496A87800900223002208
:1034A00001210DA800F09CFD07EB470108EBC100CE
:1034B0007F1CBCB218220DA9FCF734FE14B02046C4
:1034C000BDE8F08780884CF2801101EB500000B21B
:1034D000704700224900C28101F5FA41818170479D
:1034E00070B50D4605490C6805E001462A462046A0
:1034F00000F0CEF8646A002CF7D170BD44000020C3
:103500002DE9F0410A4E0F46044628213568FCF7A4
:1035100022FEA77005E0A54202D10020BDE8F0819F
:103520006D6A002DF7D13068606201203460F5E7E4
:10353000440000202DE9F05F8A469E4693460446EB
:10354000DDE91110DDE90F32DDE90D75DDE90B96DE
:10355000BAF5FA7F02D24FF0000C03E040F6C41C2B
:10356000E24500D9E246BBF1140F02D24FF0140C31
:1035700003E047F2305CE34500D9E346BEF5FA7F4D
:1035800002D24FF0000C03E040F6C41CE64500D91F
:10359000E646DDF828C0BCF1140F02D24FF0140C3F
:1035A00004E0E04647F2305CE04501D9CDF828C0A0
:1035B000A4F80AA0A4F80CB0A4F80EE0DDF828C026
:1035C0004FF4FA7AA4F810C0D14502D24FF0000CA3
:1035D00003E040F6C41CE14500D9E146142E01D2B7
:1035E000142604E047F2305C664500D96646D046B2
:1035F000474501D2002704E040F6C41C674500D9C6
:103600006746142D01D2142504E047F2305C65456D
:1036100000D96546A4F81290A682E7822583434527
:1036200001D2002304E040F6C415AB4200D92B467A
:10363000142A01D2142204E047F23055AA4200D9DC
:103640002A46514501D2002104E040F6C415A942A2
:1036500000D92946142801D2142004E047F230553D
:10366000A84200D928466383A283E183208420787E
:10367000401CC0B2FDF7C2FA2078801CC0B2FDF732
:10368000BDFA2078BDE8F05FC01CC0B2FDF7B6BA45
:103690002DE9F04794B0044600F8011B0826CDE957
:1036A000090600250127CDE90575CDE90B060520A2
:1036B0004FF00A0A0190CDE907A5CDE9020704956C
:1036C000A07891468846009004232A4639460DA8E2
:1036D00000F086FC08EB480109EBC10008F101018C
:1036E0001FFA81F818220DA9FCF71CFD04F10A004D
:1036F000CDE90906CDE90575CDE90B06022001905B
:10370000CDE907A5CDE902070495A0780090042330
:10371000002201210DA800F063FC08EB480109EB31
:10372000C10308F101001FFA80F818220DA91846FC
:10373000FCF7F8FC04F11200CDE90906CDE90575A6
:10374000CDE90B0603200190CDE907A5CDE90207DD
:103750000495A07800900423002201210DA800F018
:103760003FFC08EB480109EBC10308F101001FFA17
:1037700080F818220DA91846FCF7D4FC04F11A00B1
:10378000CDE90906CDE90575CDE90B0604200190C8
:10379000CDE907A5CDE902070495A07800900423A0
:1037A000002201210DA800F01BFC08EB480109EBE9
:1037B000C10308F1010084B218220DA91846FCF7D4
:1037C000B1FC14B02046BDE8F087704738B50369F6
:1037D0000446C3B100222078042100F00F000090BD
:1037E000A068FDF7D9F900280CD12088C0F3413139
:1037F00001290AD010F4C04F01D0022902D140F4AF
:10380000C060208038BD0222E5E720F4C06000F5EA
:103810008060F6E7052800D905204FF4FA73994235
:1038200003D340F6C413994200D91946142A01D291
:10383000142204E047F230539A4200D91A46044B4E
:1038400023F8101003F10C0121F81020704700003C
:1038500020000020FEF72AB830B58FB02821684636
:10386000FCF779FC14210AA8FCF775FC0121080477
:10387000CDE900100024029402250491CDE90750FF
:103880004FF4E01009906846FEF794F90F20CDE957
:103890000A056802CDE90C4002210AA80E94FEF741
:1038A0009DF80FB030BD00000D48016841F00101E6
:1038B000016041680B4A1140416001680A4A1140A9
:1038C0000160016821F480210160416821F4FE015A
:1038D00041604FF41F0181600449C00308607047D4
:1038E000001002400000FFF8FFFFF6FE08ED00E0C8
:1038F0000148FEF788BC00002C0100200148FEF7BB
:1039000082BC00006C010020F0B50268164B174C19
:10391000174D4FF08047984205D0B84203D0A042DF
:1039200001D0A84203D122F070064A68324398427F
:1039300005D0B84203D0A04201D0A84203D122F45E
:103940004074CA6822434C6922F08002224302601C
:103950008A68C2620A688262984201D10969016379
:1039600001214161F0BD0000002C01400004004035
:103970000008004010B5846842EA032224F47F4422
:103980000A432243826010BD826822F070020A431B
:1039900042F007018160704710B5036A046A24F0A1
:1039A00001040462846924F0F00444EA021423F060
:1039B0000A020A438461026210BD10B5036A23F053
:1039C000100303628369046A23F4704343EA0232FA
:1039D00024F0A00343EA01118261016210BD024498
:1039E00092B2824205D38A4201D9814203D2012098
:1039F00070478A42F9D90020704700000248418888
:103A0000491C4180704700003800002030B54FF459
:103A10007A6489B021460120FFF71EFA2146022070
:103A2000FFF71AFA21460320FFF716FA2146042071
:103A3000FFF712FA16488188491C89B2818014293F
:103A40001CD10021818000F1140108300DF1140C0B
:103A500002894D8944890B898CE83C0082880DF1EC
:103A6000040CCD88C4888B888CE83C004A8800927E
:103A70000A88438801880748FFF75CFD00F07EFA5A
:103A8000FFF7BCFF09B0BDE83040FCF7ADBF000058
:103A90001800002048050020024908600248FEF78F
:103AA00035BB0000040000206C01002010B5406A06
:103AB0000021C185C184FEF774FC10BD0168CA688D
:103AC00022F49072CA6001684A6922F001024A61D8
:103AD000202180F83A10704710B590F83A1022294A
:103AE00001D0022010BD8168B1F5805F11D001695D
:103AF000002901681FD0496801F07F03816A4A1CD0
:103B000082620B70C18D491E0904090CC18518D051
:103B10002BE00269816A002A0268526805D0D2B29D
:103B20000A80816A491C8162ECE7C2F308020A80BC
:103B3000816A891CF7E74A68816A4B1C83620A70B4
:103B4000E0E70168CA6822F02002CA600168CA681A
:103B500022F48072CA6001684A6922F001024A6157
:103B6000202180F83A10FEF717FE002010BD00005B
:103B70002DE9F041044600680169E26821F44051F2
:103B8000114301612169A068084361690843216804
:103B9000CA6841F20C639A430243CA6020684169D3
:103BA000A26921F44071114341611E4920686425D6
:103BB0003226884202D1FDF7B7FF01E0FDF7A4FFEE
:103BC00000EBC00101EB001160686FF01807800086
:103BD000B1FBF0F2B2FBF5F2B1FBF0F37A4303EB89
:103BE0008202B1FBF0F306EB0212B2FBF5F2B3FB7B
:103BF000F5F302F0F00202EB0312B1FBF0F3B1FBBC
:103C0000F0F0B0FBF5F0784303EB800006EB00101A
:103C1000B0FBF5F0216800F00F0010448860BDE8AB
:103C2000F08100000038014090F83910212901D0BE
:103C3000022070478168B1F5805F016A0BD04A1C91
:103C40000262026809785160C18C491E0904090C9E
:103C5000C1840ED017E009880268C1F308015160E1
:103C600001690029016A02D0491C0162ECE7891C44
:103C7000FBE70168CA6822F08002CA600068C16878
:103C800041F04001C1600020704700000148FEF78C
:103C900089BB0000AC0100200148FEF783BB000097
:103CA000EC0100200148FEF77DBB00002C02002043
:103CB0000148FDF767B90000540000202DE9F047E6
:103CC0000D4608A91E4691E8000717460446342110
:103CD000FCF741FA257004F12401E78281E84007EE
:103CE0000020052D02D0042D01D001E0E062206308
:103CF00001202084BDE8F087FEE700000348C0787B
:103D0000800601D401207047002070470C0000207D
:103D100003488078400601D4012070470020704796
:103D20000C0000200348C078400601D401207047F1
:103D3000002070470C0000200348C078400701D4E1
:103D400001207047002070470C0000200348807855
:103D5000000601D401207047002070470C000020AD
:103D60000348C078000701D4012070470020704745
:103D70000C0000200348C078000601D401207047E1
:103D8000002070470C00002003488078800601D492
:103D900001207047002070470C0000200348C078C5
:103DA000C00601D401207047002070470C0000209D
:103DB00003488078C00601D4012070470020704776
:103DC0000C0000200907090E002804DB00F1E020A8
:103DD00080F80014704700F00F0000F1E02080F838
:103DE000141D704702E008C8121F08C1002AFAD14A
:103DF00070477047002001E001C1121F002AFBD16B
:103E0000704700EB81008261704770B5044600691D
:103E1000804701462078C0F300128A420CD04FF050
:103E2000005202EBF0004FEA707000F007022070C1
:103E3000072A04D361F3041020F007002070C0B2F9
:103E4000010981EAD001C94361F34510410921EA22
:103E5000D01161F38610410961F3C710C0F340111E
:103E6000C0F380121144207011EBD0134FF000000A
:103E700004D0022B2FD0032B3AD122E0E17819B1E4
:103E8000617841F002016170E1882289914202D299
:103E9000491CE1802CE0227952B36178012A41F07B
:103EA0004001617007D0022A08D0627141F0100110
:103EB000617020711CE041F00401F9E741F0080154
:103EC000F6E7617841F00101617060812179491C58
:103ED0002171E0800CE06189491C89B26181A2896D
:103EE00032B1914204D3617841F020016170608168
:103EF000E3706078002815D00125002660782842FC
:103F00000AD004EB8600816919B1A5708169204649
:103F100088476078A84360706806761C050EF6B284
:103F2000072EEBD370BD2DE9F0410D461E46174616
:103F300004463421DDF81880FCF70DF92561A84707
:103F40000146207861F3041067F3C30020702681D6
:103F5000A4F80C80BDE8F081074A11680B4605E023
:103F6000814202D14FF0FF30704749690029F7D1F3
:103F7000436110600020704714000020054810B510
:103F8000046803E02046FFF740FF6469002CF9D184
:103F900010BD000014000020002100EB800000E0B4
:103FA000491CB1EB400FFBDB7047FDF787FCFFF7C7
:103FB00053FCFEF793FCFEF753FCFEF72DFCFEF7D7
:103FC00029FDFEF74BFDFEF76BFDFEF79BFDFEF7AF
:103FD000CDFDFEF7E7FDFEF701FEFCF727FBFCE752
:103FE0002DE9FF4F87B014ACDDE91D8694E8000E83
:103FF000DDE91F750020DDF870E0044658EA060C84
:104000000BD0844669F3134C63F31B5C6AF30F3CDB
:10401000644662F3030461F30B1457EA050C09D0FC
:1040200062F3134061F31B506BF30F3069F303002D
:1040300063F30B10082E00D90826082D00D9082597
:10404000179ABDF80010CDE9024062F30821189AD2
:10405000ADF806E062F34A21199A1A9862F34E31DC
:1040600060F3CC211B98ADF80010ADF804009DF86A
:104070000000059766F3030065F307108DF8000054
:10408000BDF80200CDF810806FF30800ADF8020013
:10409000182269460798FCF745F80BB0BDE8F08F89
:1040A00000000000000000000102030406070809E8
:1040B0000000000001020304D840000800000020B6
:1040C00054000000E43D00082C410008540000208A
:1040D00064100000F43D00080024F400000000001B
:1040E00000000000000000000000000000000000D0
:1040F0000000000000000000DC05DC05DC05DC053C
:10410000DC05DC0514001400140014001400140075
:10411000000000000000000000000000000000009F
:0C41200001000000100000000000000082
:04000005080000ED02
:00000001FF
