:020000040800F2
:100000005011002001010008F9330008C52F000835
:10001000F533000889050008E34B000800000000E4
:10002000000000000000000000000000E5420008A1
:10003000E50C000800000000153E000845430008DC
:100040001B0100081B0100081B0100081B01000820
:100050001B0100081B0100081B0100081B01000810
:100060001B0100081B0100081B0100081B01000800
:100070001B010008990C00081B010008A90C0008CE
:100080001B0100081B0100081B0100081B010008E0
:10009000854B00081B0100081B0100081B0100081C
:1000A0001B0100081B0100081B0100081B010008C0
:1000B0000D4400081D4400081B0100081B01000836
:1000C0001B0100081B0100081B0100081B010008A0
:1000D0001B010008594900081B0100080D4A0008CF
:1000E0001B0100081B0100081B010008DFF80CD0F1
:1000F00000F078F900480047754E000850110020C4
:100100000648804706480047FEE7FEE7FEE7FEE7B1
:10011000FEE7FEE7FEE7FEE7FEE7FEE7B543000881
:10012000ED00000840EA01039B0703D009E008C97D
:10013000121F08C0042AFAD203E011F8013B00F8AC
:10014000013B521EF9D27047D2B201E000F8012BF8
:10015000491EFBD270470022F6E710B513460A4647
:1001600004461946FFF7F0FF204610BDF0B480EAC0
:100170000102D40F4200B2EB410F02D20246084600
:1001800011464A0042D0C30DDDB2C1F3C752AD1AC9
:10019000202D35DAC1F3160141F4000204B15242B8
:1001A000C5F1200602FA06F12A411044B3EBD05FF4
:1001B00023D0C4B1012DA0EBC35009DCF0BC4FF03B
:1001C000004202EAC352DBB200F5000000F0DBB8E7
:1001D000400000F1807000EBC350A0F1807040EA55
:1001E000D170490009E0490841EAC071A0EBC35051
:1001F00000F50000400800EBC350F0BC00F0BAB8B6
:100200006142012202EB4101001BF6E7F0BC70479E
:1002100081F00041AAE780F00040A7E780EA0102F0
:1002200010B502F00043400022D04A001FD0010E5A
:1002300001EB1261C0F35600C2F3560240F4000015
:1002400042F40002A0FB022000047F39140400D015
:10025000401C50EA124001D44000491EC2B20C06B4
:1002600004EBD010401C4008802A02D003E000209C
:1002700010BD20F00100002900DA0020184310BD55
:1002800030B480EA010202F0004530F0004221F073
:10029000004013D090B1C30DD40DC2F31601C0F3CA
:1002A0001600E41A41F4000140F400027D3491424A
:1002B00001D3641C00E04900002C02DA30BC0020AD
:1002C00070474FF400000023914201D3891A034381
:1002D00040084FEA4101F7D151B1914202D14FF0AC
:1002E000004105E002D24FF0010101E06FF0010191
:1002F00003EBC450284430BC00F03CB8C10F80EA86
:10030000E0700844CA079623002100F03CB8962309
:100310000022114600F037B800F0004220F0004003
:10032000C10DC0F3160040F400007F2901DA00205F
:100330007047962903DCC1F19601C84001E0963967
:100340008840002AF4D0404270470000002801DBBA
:10035000C0F10040002901DBC1F10041814270473A
:10036000002801DBC0F10040002901DBC1F10041A0
:10037000884270470029A8BF7047401C490008BF49
:1003800020F00100704710B4B0FA80FC00FA0CF0C5
:1003900050EA010404BF10BC704749B1CCF12004FD
:1003A00021FA04F411FA0CF118BF0121214308438A
:1003B000A3EB0C01CB1D4FEA00614FEA102042BFB6
:1003C000002010BC704700EBC35010440029A4BFAC
:1003D00010BC7047401C490008BF20F0010010BC51
:1003E00070470000064C074D06E0E06840F001034E
:1003F00094E8070098471034AC42F6D3FFF77AFE32
:100400008C500008AC5000080EB503F05FFC0121D1
:10041000134803F031FD0221124803F02DFD0321A2
:10042000114803F029FD0421104803F025FD0121A6
:100430000F4803F0E3FD0D480B490A4A084BCDE98C
:10044000002102904FF4C87206210A4804F0A2FB72
:1004500000F062F903F07AF8074804F0FFF80EBDE7
:100460005C080020740800208C080020A4080020EC
:100470002C060020BC080020554500080025002659
:100480000027A846FFF7C0FF67E0344803F016FDD9
:100490003349088003F0F8FB002847D1322001F0EF
:1004A0005BFA002208212F4801F002FC002404E03E
:1004B00000202D490855601CC4B2082CF8DB03F05D
:1004C00081FB2948C079C0F1800046002648807928
:1004D0008038470024484079C0F180004500224818
:1004E000007980384FEA4008002E01DD304600E0F8
:1004F0007042322800DA00BF002D01DD284600E0FE
:100500006842322800DA00BF002F01DD384600E0E3
:100510007842322800DA00BFB8F1000F01DD404612
:1005200001E0C8F1000032280ADA09E001220821BE
:100530000C4801F0BDFB00BF00BF00BF03F08CFA08
:10054000322001F009FA07E004F046FC40F2DC50EA
:1005500001F002FA04F0A8FCF6E796E75C08002038
:100560002A000020000C01401C00002010B502F001
:1005700043FD10BD10B502F0FBFC10BD0148406A00
:10058000704700008800002000BFFEE72DE9F04121
:1005900005460024B6E004EB44005D4901EBC000D1
:1005A000C068E96888427CD1002704EB44005849C0
:1005B00001EBC000406968B1A87804EB4401544ADB
:1005C00012F83110B0EB111F01D1012000E0002022
:1005D000074609E004EB44004D4911F830000009DA
:1005E00010B1687800B10127012F5AD104EB440003
:1005F000474901EBC000406978B100260AE0E81CD9
:10060000805D04EB4401424A02EBC101496988550F
:10061000701CC6B2A878B042F1DCE86800F065FB57
:1006200004EB44003A4901EBC000006938B904EB1F
:10063000440011F8300000F00F00002860D004EBF7
:100640004400334931F83000C0F3413020B1012873
:1006500012D0022853D128E004EB44002C4901EBCE
:10066000C00080882B490988081A04EB4401284AF5
:1006700002EBC101C88042E004EB4400244931F898
:100680003000C0F3412002280ED104EB440031F8C1
:10069000300020F4C06000F5C06004EB44011C4A47
:1006A00000E02DE022F8310029E004EB4400184975
:1006B00031F8300020F4807000F5807004EB4401C4
:1006C000134A22F8310004EB4400114631F830009F
:1006D00020F4C06000F5007004EB440122F8310002
:1006E00004EB4400114601EBC000808809490988E9
:1006F000081A04EB440102EBC101C88000BF00BF2F
:10070000601CC4B21D2CFFF646AFBDE8F0810000AE
:10071000940A00206A00002010B54FF4FA600349E3
:10072000088002F051FCFFF725FF10BD6A00002091
:100730007FB5684600F07AFA10B16846FFF726FFE9
:10074000FE48007800287DD100F0CEFA0024B9E1FF
:1007500004EB4400FA4931F83000C0F300200028CF
:1007600071D004EB440031F83000C0F3C120002800
:100770006AD104EB440031F83000C0F34120012875
:1007800035D104EB4401EE4A02EBC10003F0ABFDAE
:1007900004EB4400EA4901EBC0004088C0F382103A
:1007A00005281BDA04EB440031F83000C0F3412087
:1007B000012813D104EB440001EBC00040888009FC
:1007C000401C04EB4401DE4A02EBC101498860F39E
:1007D000881104EB440002EBC0004180D948008836
:1007E00004EB4401D64A02EBC101C8806DE104EB81
:1007F0004400D34931F83000C0F3412002284DD1E4
:1008000004EB440001EBC000408820F4E07004EBEE
:100810004401CB4A02EBC101488004EB440113467A
:1008200003EBC1018A8804EB440103EBC101C888D2
:10083000C449098803F06FFE002891D004EB4400FE
:10084000BF4902E087E128E057E031F8300020F4AA
:10085000C06000F5007004EB4401B94A22F8310091
:1008600004EB4400114601EBC0008078C0F3830024
:100870000A2812DA04EB440001EBC00080788008FB
:10088000401C04EB440102EBC101498860F385017F
:1008900004EB440002EBC000418011E104EB440092
:1008A000A74931F83000C0F341200328F5D104EB0B
:1008B000440001EBC000408820F4E07004EB4401E8
:1008C0009F4A02EBC101488004EB4400114601EB52
:1008D000C000408820F03C0004EB440102EBC10161
:1008E000488004EB4400114631F8300020F4C06029
:1008F00004EB440122F83100E2E004EB44009049AB
:1009000031F83000C0F3C1200128C6D104EB440106
:100910008B4B03EBC1018A8804EB440103EBC1015B
:10092000C8888849098803F0F6FDE8B304EB440061
:10093000834931F83000C0F34120012837D104EB5E
:1009400044017F4A02EBC10003F0CDFC04EB4400FC
:100950007B4901EBC0004088C0F3821005281BDAF8
:1009600004EB440031F83000C0F34120012813D1DA
:1009700004EB440001EBC00040888009401C04EBFC
:1009800044016F4A02EBC101498860F3881104EB0E
:10099000440002EBC00041806A48008804EB440137
:1009A000674A02EBC10100E001E0C8808DE004EB82
:1009B0004400634931F83000C0F34120022848D197
:1009C00004EB440001EBC000408820F4E07004EB2D
:1009D00044015B4A02EBC101488004EB4401134629
:1009E00003EBC1018A8804EB440103EBC101C88811
:1009F0005449098803F08FFD50B304EB440050497B
:100A000031F8300020F4C06000F5007004EB4401C0
:100A10004B4A22F8310004EB4400114601EBC000C0
:100A20008078C0F383000A284ADA04EB440001EB23
:100A3000C00080788008401C04EB440102EBC10137
:100A4000498860F3850104EB440002EBC00041805B
:100A500036E004EB44003A4931F83000C0F341205D
:100A600003282DD104EB440001EBC000408820F4A2
:100A7000E07004EB4401324A02EBC101488004EB10
:100A80004400114601EBC000408820F03C0004EB1C
:100A9000440102EBC10148802A48008804EB44016C
:100AA00002EBC101C88004EB4400114631F830006C
:100AB00020F4C06000F5007004EB440122F831001E
:100AC000601CC4B21D2CFFF643AE00BF00250024FD
:100AD00021E004EB44001A4901EBC0004088C0F358
:100AE000821005280EDB45F0020504EB440001EB03
:100AF000C000408820F4E07004EB4401104A02EB8F
:100B0000C1014880FFF73AFD08B145F0040505B181
:100B100003E0601CC4B21D2CDBDB00BF55B1FFF746
:100B200025FDFFF727FD07480088074908800120B9
:100B30000249087005480078284309E07000002049
:100B4000940A00206A0000206E0000206C00002043
:100B5000074908700AE032220648018806480088E2
:100B600003F0D9FC10B10020044908707FBD0000DB
:100B70006C0000206A0000206E0000207000002041
:100B80002DE9F04387B004460D4616461F46DDF8B2
:100B90003880B8F1080F01DD4FF008080294019485
:100BA00003950496CDF814806B463A4601A9044893
:100BB00000F0B1F88146484607B0BDE8F083000078
:100BC00088000020014608784A78904201D101202F
:100BD00070470020FCE70FB470B50446204600F0D3
:100BE00016F818B1002070BC5DF814FB6178201D68
:100BF00000EB011005A92EC92EC06078401C1421FD
:100C000090FBF1F201FB120060700120EBE701465E
:100C10004878401C142290FBF2F302FB13000A7880
:100C2000904201D1012070470020FCE710B5044636
:100C30000C48FFF7C7FF08B1002010BD0948017834
:100C4000001D00EB01130FCB84E80F00054800786E
:100C5000401C142190FBF1F201FB120001490870C5
:100C60000120EAE7E804002000EB4001094A32F8DD
:100C70003110C1F3C12161B900EB400132F83110EC
:100C800021F4C06101F5007100EB4002014B23F833
:100C900032107047940A002010B5024800F00CFD95
:100CA00010BD0000A404002010B5024800F004FDAF
:100CB00010BD00006004002030B590F840500124C1
:100CC000AC40C56B6C60046863604468102C04D150
:100CD0000468A2600468E16003E00468A16004683D
:100CE000E26030BD704770477047704710B50246EC
:100CF00092F82030012B01D0022B06D110684069F8
:100D0000084314686061002010BD506A40F48020E0
:100D100050620120F8E7F0B504460D461E4694F8EF
:100D2000207020688368A86800B900E000BF012F28
:100D300001D0022F7CD103F0806030B903F0006055
:100D400018B903F08050002873D0C3F30161022961
:100D500005D9606A40F4000060620120F0BD012006
:100D600088403060A86860B9B5F800C0E86840EA1B
:100D70004C5C206800F5C07000EB0110C0F800C0AA
:100D80000FE0D5E901C040EACC00D5F80CC040EA3C
:100D90000C00D4F800C00CF5C07C0CEB011CCCF8A6
:100DA0000000D5F810C0206800F5C07000EB0110FD
:100DB000C0F804C0287D01280ED1206800F5C0705D
:100DC00000EB0110406840F4807C206800F5C070A2
:100DD00000EB0110C0F804C0D079000692F806C0FC
:100DE00040EA0C4092F805C040EA0C2C10794CEA1D
:100DF000000C206800F5C07000EB0110C0F80CC0BA
:100E0000D078000692F802C040EA0C4092F801C087
:100E100040EA0C2092F800C040EA0C00D4F800C070
:100E20000CF5C07C0CEB011CCCF80800206801E03C
:100E300016E00FE000F5C07000EB0110006840F014
:100E4000010C206800F5C07000EB0110C0F800C074
:100E5000002083E7606A40F40010606201207DE7B3
:100E6000606A40F480206062012077E7F0B50446B4
:100E70000A46216894F82050012D01D0022D74D12A
:100E8000D1F8000240F00100C1F80002107D00F02E
:100E90001F06012000FA06F3D1F81C029843C1F89E
:100EA0001C02D069C8B9D1F80C029843C1F80C02F1
:100EB000908880B2968940EA064601F5107057691D
:100EC00040F83760108880B2168940EA064601F57E
:100ED0001070576900EBC7004660D069012819D12E
:100EE000D1F80C021843C1F80C02908880B2168821
:100EF00040EA064601F51070576940F8376090895E
:100F000080B2168940EA064601F51070576900EB79
:100F1000C7004660906928B9D1F804029843C1F827
:100F2000040204E0D1F804021843C1F80402106975
:100F300028B9D1F814029843C1F8140204E0D1F89A
:100F400014021843C1F81402106A012804D1D1F820
:100F50001C021843C1F81C02D1F8000220F0010065
:100F6000C1F800020020F0BDFFE7606A40F4802075
:100F700060620120F7E7704770B5044694F820508E
:100F8000012D01D0022D7DD151B92068C06800F03B
:100F9000030080B9606A40F400106062012070BDF7
:100FA0002068006900F0030028B9606A40F400106E
:100FB00060620120F3E7206800F5D87000EB0110B3
:100FC000006800F004009060906840B9206800F567
:100FD000D87000EB01100068400D106007E0206839
:100FE00000F5D87000EB01100068C0085060206860
:100FF00000F5D87000EB0110006800F00200D0602E
:10100000206800F5D87000EB0110406800F00F0078
:101010001061206800F5D87000EB0110406800F402
:101020007F40000A9061206800F5D87000EB011045
:101030004068000C5061206800F5D87000EB01108A
:1010400080681870206800F5D87000EB0110806887
:1010500000F47F40000A5870206800F5D87000EB5B
:101060000110806800F47F00000C9870206800F583
:10107000D87000EB01108068000ED870206800F571
:10108000D87000E02FE000EB0110C06818712068F4
:1010900000F5D87000EB0110C06800F47F40000A32
:1010A0005871206800F5D87000EB0110C06800F49A
:1010B0007F00000C9871206800F5D87000EB0110DB
:1010C000C068000ED87131B92068C06840F02000B7
:1010D0002668F06005E02068006940F0200026687E
:1010E000306100205BE7606A40F48020606201208C
:1010F00055E72DE9F05F0446002520684669206821
:10110000D0F80490206887682068D0F80CA0206888
:10111000D0F810B02068D0F8188006F00100002840
:1011200055D007F00100C0B101202168886007F0A8
:10113000020018B1204600F08EFA0EE007F004001D
:1011400010B145F4006508E007F0080010B145F45F
:10115000805502E0204600F07DFA07F48070C8B1A7
:101160004FF480702168886007F4007018B1204641
:1011700000F073FA0EE007F4806010B145F40055FA
:1011800008E007F4006010B145F4804502E0204615
:1011900000F062FA07F48030C8B14FF48030216863
:1011A000886007F4003018B1204600F058FA0EE0CD
:1011B00007F4802010B145F4004508E007F4002052
:1011C00010B145F4803502E0204600F047FA06F001
:1011D000080038B10AF0100020B145F40075102065
:1011E0002168C86006F0040040B10AF0080028B188
:1011F00008202168C860204600F0B4F906F002001B
:1012000038B12068C06800F0030010B1204600F03B
:10121000ABF906F0400038B10BF0100020B145F4F6
:10122000806510202168086106F0200040B10BF0B5
:10123000080028B1082021680861204600F0D8F98C
:1012400006F0100038B12068006900F0030010B10A
:10125000204600F0CEF906F4003040B109F010004D
:1012600028B1102021684860204600F0C3F906F438
:10127000803040B109F0080028B10820216848609A
:10128000204600F0EDF906F4004088B309F00400B0
:1012900078B306F4807020B108F0010008B145F081
:1012A000010506F4007020B108F0020008B145F015
:1012B000020506F4806020B108F0040008B145F092
:1012C000040506F40060A0B108F0700088B108F0D1
:1012D0007000402817D006DC10280BD020280CD036
:1012E000302819D10CE0502810D0602814D110E01B
:1012F0001DE019E045F008050FE045F010050CE091
:1013000045F0200509E045F0400506E045F0800580
:1013100003E045F4807500E000BF00BF20688069ED
:1013200020F07000216888610420216848602DB198
:10133000606A284360622046FFF71DFEBDE8F09F0B
:1013400070B504460CB9012070BD94F8200010B9A6
:10135000204600F0AFF82068006820F00200216805
:10136000086000F0ABFC05460DE000F0A7FC401B58
:101370000A2808D9606A40F400306062052084F8C9
:1013800020000120E0E72068406800F0020000280B
:10139000EBD12068006840F001002168086000F08F
:1013A0008DFC05460DE000F089FC401B0A2808D999
:1013B000606A40F400306062052084F8200001205B
:1013C000C2E72068406800F001000028EBD0207ED2
:1013D000012806D12068006840F08000216808607C
:1013E00005E02068006820F0800021680860607EC9
:1013F000012806D12068006840F04000216808609C
:1014000005E02068006820F0400021680860A07EA8
:10141000012806D12068006840F02000216808609B
:1014200005E02068006820F0200021680860E07E68
:10143000012806D12068006820F0100021680860AB
:1014400005E02068006840F0100021680860207FF7
:10145000012806D12068006840F008002168086073
:1014600005E02068006820F0080021680860607FBF
:10147000012806D12068006840F004002168086057
:1014800005E02068006820F0040021680860D4E9C5
:101490000201084321690843616908436168491EE4
:1014A00008432168C86100206062012084F82000A0
:1014B000002049E710B586B0044600200290039052
:1014C0000490059023492068884241D100BF2248FA
:1014D000C06940F000702049C8610846C06900F04A
:1014E0000070019000BF00BF00BF0846806940F057
:1014F000080088610846806900F00800019000BF7C
:1015000000BF8815029000200390049002A91348A0
:1015100000F036FA4FF4007002900220039003208E
:10152000059002A90D4800F02BFA00BF0C4948684D
:1015300020F4C04040F0E06040F48040486000BFCC
:1015400000221146142000F03FFC142000F02CFC77
:1015500006B010BD0064004000100240000C0140C5
:10156000000001407047000030B58FB0054606AB63
:1015700008AA00212846FFF7FFFC002833D10A986B
:10158000C0B28DF808000B98C0B28DF809000C9815
:10159000C0B28DF80A009DF80800042802D109980D
:1015A000059001E00898059000240EE09DF80A00DF
:1015B000A04204DD06A8015D0D38015503E00021BD
:1015C0000DF10B000155601CC4B2082CEEDB059830
:1015D0000090064802A90EC9FFF7FDFA044614B9A7
:1015E00002A802F018FC0FB030BD0000E804002093
:1015F00070477047704770B5044694F82000012882
:1016000022D1022084F820002068006820F0010028
:101610002168086000F052FB05460DE000F04EFB2B
:10162000401B0A2808D9606A40F400306062052037
:1016300084F82000012070BD2068406800F001009F
:101640000028EBD16062F6E7606A40F40020606237
:101650000120F0E770477047704770477047704748
:1016600070470146002291F82100022808D004208A
:10167000886300BF002081F8200000BF0120704770
:101680000868006820F00E000B68186008680068A1
:1016900020F001000B68186091F84030012098405C
:1016A000CB6B5860012081F8210000BF002081F839
:1016B000200000BF1046E2E770B50446E06B056805
:1016C0002068066894F840100420884028400028CC
:1016D00046D006F00400002842D02068006800F0E0
:1016E000200028B92068006820F004002168086004
:1016F00057492068884201D1042027E05449143119
:101700002068884201D1402020E0514928312068DA
:10171000884201D1001519E04D493C3120688842CA
:1017200002D14FF4804011E049495031206888428D
:1017300002D14FF4802009E0454964312068884295
:1017400002D14FF4800001E04FF080604049083939
:101750004860E06A00287AD02046E16A884776E04F
:1017600094F84010022088402840A0B306F0020000
:1017700088B32068006800F0200040B92068006845
:1017800020F00A0021680860012084F82100304917
:101790002068884201D1022028E02D4914312068B8
:1017A000884201D1202021E029492831206888423F
:1017B00001D140151AE026493C312068884202D107
:1017C0004FF4005012E0224950312068884203D182
:1017D0004FF400300AE017E01D4964312068884268
:1017E00002D14FF4001001E04FF0007018490839A1
:1017F000486000BF002084F8200000BFA06A30B31A
:101800002046A16A884722E094F8401008208840CA
:101810002840E0B106F00800C8B12068006820F058
:101820000E002168086094F8401001208840E16BA8
:1018300048600120A06384F8210000BF002084F8E4
:10184000200000BF206B10B12046216B884770BD7F
:10185000080002400146002209B901207047164BDA
:101860000868C01A1423B0FBF3F080000864124823
:101870000838C863022081F821000868026843F62E
:10188000F0708243D1E901031843CB6818430B6918
:1018900018434B6918438B691843CB6918430243BB
:1018A0000868026000208863012081F82100002080
:1018B00081F8200000BFD1E7080002402DE9F04187
:1018C00004460D4616461F464FF0000800BF94F828
:1018D0002000012802D10220BDE8F081012084F817
:1018E000200000BF94F8210001282CD1022084F8A8
:1018F00021000020A0632068006820F0010021681A
:1019000008603B46324629462046FFF7D5F9E06A93
:1019100030B12068006840F00E00216808600BE0DC
:101920002068006820F004002168086020680068D2
:1019300040F00A00216808602068006840F001005B
:101940002168086006E000BF002084F8200000BF86
:101950004FF002084046BFE770B5044600F0AEF90C
:1019600006462546681C10B104480078054400BFAF
:1019700000F0A4F9801BA842FAD370BD84000020B7
:101980002DE9F8470346002294466EE14FF0010826
:1019900008FA02F4D1F8008008EA0400A0427DD1E0
:1019A000DFF8DCA2D1F80480A8EB0A09D0453AD0D0
:1019B00014DCB8F1030F50D009DCB8F1000F31D0BE
:1019C000B8F1010F1CD0B8F1020F49D120E0B8F1F5
:1019D000110F18D0B8F1120F42D11EE0B9F5881FCF
:1019E00025D006DCB9F5803F20D0B9F5801F37D16E
:1019F0001AE0B9F5001F18D0B9F5041F30D117E06F
:101A0000D1F80CC02DE0D1F80C8008F1040C28E0CE
:101A1000D1F80C8008F1080C23E0D1F80C8008F113
:101A20000C0C1EE000BF00BF00BF00BF00BF00BF26
:101A3000D1F80880B8F1000F02D14FF0040C0BE090
:101A4000D1F80880B8F1010F03D14FF0080C1C61E8
:101A500002E04FF0080C5C6103E04FF0000C00E086
:101A600000BF00BFFF2801D8984601E003F1040839
:101A70004646FF2802D84FEA820803E0A2F1080890
:101A80004FEA88084746D6F800804FF00F0909FA58
:101A900007F928EA09080CFA07F900E088E048EAA3
:101AA0000908C6F80080D1F8048008F08058B8F121
:101AB000805F7DD100BFDFF8CC81D8F8188048F076
:101AC0000108DFF8C091C9F81880C846D8F8188016
:101AD00008F00108CDF8008000BF00BF4FEAB93818
:101AE0004FEA920958F829504FEA82784FEA18795C
:101AF0004FF00F0808FA09F825EA0805DFF8888191
:101B0000434502D14FF0000816E0DFF880814345DD
:101B100002D14FF001080FE0DFF87481434502D194
:101B20004FF0020808E0DFF86C81434502D14FF026
:101B3000030801E04FF004084FEA82794FEA19796F
:101B400008FA09F848EA0505DFF84C814FEA9209DE
:101B500048F82950D1F8048008F48038B8F5803F5F
:101B60000AD1DFF83881D8F8008048EA0008DFF8A9
:101B70002C91C9F8008009E0DFF82081D8F80080B6
:101B800028EA0008DFF81491C9F80080D1F8048031
:101B900008F40038B8F5003F10D1DFF8008108F1F3
:101BA0000408D8F8008048EA0008DFF8F09000E068
:101BB0005AE009F10409C9F800800DE0DFF8DC8083
:101BC00008F10408D8F8008028EA0008DFF8CC9073
:101BD00009F10409C9F80080D1F8048008F48018DC
:101BE000B8F5801F0ED1DFF8B48008F10808D8F8E6
:101BF000008048EA0008DFF8A49009F10809C9F854
:101C000000800DE0DFF8948008F10808D8F8008023
:101C100028EA0008DFF8849009F10809C9F8008073
:101C2000D1F8048008F40018B8F5001F0ED1DFF8D1
:101C30006C8008F10C08D8F8008048EA0008DFF84A
:101C40005C9009F10C09C9F800800DE0DFF84C80C8
:101C500008F10C08D8F8008028EA0008DFF83C906A
:101C600009F10C09C9F80080521CD1F8008028FA4B
:101C700002F8B8F1000F7FF489AEBDE8F8870000E4
:101C8000000011100010024000080140000C01404B
:101C90000010014000140140080001400004014010
:101CA000024693680B400BB1012000E00020704712
:101CB0000AB1016101E00B0403617047014800684B
:101CC000704700007C000020034800680349097841
:101CD00008440149086070477C000020840000200F
:101CE00010B50848006840F010000649086003205D
:101CF00000F0A8F8002000F007F800F02BF8002012
:101D000010BD00000020024070B504460E48007867
:101D10004FF47A71B1FBF0F00C490968B1FBF0F5B2
:101D2000284600F0CBFC08B1012070BD102C07D272
:101D300000222146501E00F047F80548046001E0EB
:101D40000120F2E70020F0E78400002010000020CE
:101D50008000002008B500BF1148806940F00100F4
:101D60000F4988610846806900F00100009000BFBB
:101D700000BF00BF0846C06940F08050C8610846F7
:101D8000C06900F08050009000BF00BF00BF05494F
:101D9000486820F0E06040F00070486000BF08BD77
:101DA000001002400000014001460846002809DBFF
:101DB00000F01F0301229A4043099B0003F1E02336
:101DC000C3F8002100BF70472DE9F05F80460D4643
:101DD0001646002702F008FF074639462A463346D2
:101DE00001F00700C0F1070ABAF1040F02D94FF061
:101DF000040A01E0C0F1070AD14600F1040ABAF171
:101E0000070F02D24FF0000A01E0A0F1030AD44606
:101E10004FF0010A0AFA09FAAAF1010A0AEA020ACB
:101E20000AFA0CFA4FF0010B0BFA0CFBABF1010BA9
:101E30000BEA030B4AEA0B042146404602F0DCFEA3
:101E4000BDE8F09F00BF00F00702064B19684FF68F
:101E5000FF031940044B0B4343EA0221014B196075
:101E600000BF70470CED00E00000FA0570B50446B5
:101E70000D460CB9012070BD5A48006800F00700FB
:101E8000A8420ED25748006820F007002843554961
:101E900008600846006800F00700A84201D0012051
:101EA000E9E7207800F0020002281DD1207800F038
:101EB0000400042805D14C48406840F4E0604A49D9
:101EC0004860207800F00800082805D1464840689E
:101ED00040F46050444948604348406820F0F000B6
:101EE000A168084340494860207800F0010078B3B9
:101EF0006068012806D13C48006800F4003090B9C1
:101F00000120B8E76068022806D13748006800F071
:101F1000007040B90120AEE73348006800F00200CD
:101F200008B90120A7E73048406820F00300616845
:101F300008432D494860FFF7C1FE064609E0FFF758
:101F4000BDFE801B41F28831884202D9032092E70E
:101F500007E02548406800F00C006168B0EB810F95
:101F6000EDD12048006800F00700A8420ED91D48B6
:101F7000006820F0070028431A49086008460068F6
:101F800000F00700A84201D0012074E7207800F09B
:101F90000400042807D11448406820F4E060E16898
:101FA000084311494860207800F00800082808D14B
:101FB0000D48406820F46050216940EAC1000A4998
:101FC000486000F03FF808494968C1F30311074A27
:101FD000515CC8400649086006480068FFF794FE57
:101FE000002048E700200240001002405250000844
:101FF00010000020800000200148006870470000A9
:102000001000002000B5FFF7F7FF04494968C1F34D
:102010000221034A515CC84000BD0000001002408C
:102020006250000800B5FFF7E7FF04494968C1F3B3
:10203000C221034A515CC84000BD000000100240AC
:1020400062500008F0B585B00FF26C0C9CE8E0100F
:1020500001A8A0E8E0101CA52D6800950021002231
:10206000002300240020194D696801F00C05F5B12A
:10207000042D02D0082D19D101E0154819E001AD59
:10208000C1F38346AC5D01F4803555B10F4D6D68E9
:10209000C5F340451DF805200D4D6543B5FBF2F332
:1020A00002E00C4D04FB05F3184602E000BF0848AF
:1020B00000BF00BF05B0F0BD020304050607080914
:1020C0000A0B0C0D0E0F1010010200000010024050
:1020D00000127A0000093D00F8B504460CB9012051
:1020E000F8BD207800F00100002878D0F84840685A
:1020F00000F00C0004280CD0F548406800F00C00FB
:10210000082811D1F248406800F48030B0F5803FD3
:102110000AD1EF48006800F4003000285FD0606802
:1021200000285CD10120DBE700BF6068B0F5803F8C
:1021300006D1E748006840F48030E549086028E0AF
:10214000606858B9E248006820F48030E0490860CF
:102150000846006820F4802008601AE06068B0F546
:10216000A02F0BD1DA48006840F48020D8490860DD
:102170000846006840F4803008600AE0D4480068EF
:1021800020F48030D24908600846006820F480209E
:10219000086000BF606888B1FFF790FD054606E063
:1021A000FFF78CFD401B642801D9032098E7C8483D
:1021B000006800F400300028F2D010E0FFF77EFD48
:1021C000054606E0FFF77AFD401B642801D903208D
:1021D00086E7BF48006800F400300028F2D120787C
:1021E00000F00200022857D1B948406800F00C0006
:1021F00050B1B748406800F00C00082818D1B44826
:10220000406800F4803098B9B148006800F00200DE
:1022100020B12069012801D0012061E7AC480068A5
:1022200020F0F800616940EAC100A949086033E084
:102230002069E8B10120A7490860FFF73FFD054686
:1022400006E0FFF73BFD401B022801D9032047E7CA
:102250009F48006800F002000028F2D09C48006807
:1022600020F0F800616940EAC1009949086013E074
:10227000002098490860FFF721FD054606E0FFF7BA
:102280001DFD401B022801D9032029E79048006862
:1022900000F002000028F2D1207800F008000828A1
:1022A0002DD1A069B8B101208B490860FFF706FD68
:1022B000054606E0FFF702FD401B022801D9032076
:1022C0000EE78348406A00F002000028F2D00120A7
:1022D00001F0A8FD13E000207F490860FFF7EEFC45
:1022E000054606E0FFF7EAFC401B022801D903205F
:1022F000F6E67748406A00F002000028F2D1207824
:1023000000F00400042873D100277148C06900F070
:10231000805070B900BF6E48C06940F080506C4971
:10232000C8610846C06900F08050009000BF00BF3F
:1023300001276A48006800F48070B0B967480068F7
:1023400040F4807065490860FFF7B8FC054606E078
:10235000FFF7B4FC401B642801D90320C0E65F48A6
:10236000006800F480700028F2D000BFE068012807
:1023700006D15748006A40F001005549086227E03D
:10238000E06858B95248006A20F0010050490862DC
:102390000846006A20F00400086219E0E068052899
:1023A0000BD14B48006A40F00400494908620846D6
:1023B000006A40F0010008620AE04548006A20F027
:1023C0000100434908620846006A20F004000862E0
:1023D00000BFE068A0B1FFF771FC054609E0FFF718
:1023E0006DFC401B41F28831884202D9032077E618
:1023F00022E03748006A00F002000028EFD012E027
:10240000FFF75CFC054608E0FFF758FC401B41F273
:102410008831884201D9032062E62D48006A00F025
:1024200002000028F0D1012F05D12948C06920F011
:1024300080502749C86100BFE069C8B3244840689C
:1024400000F00C00082860D0E069022848D1002084
:1024500020490866FFF732FC054606E0FFF72EFC30
:10246000401B022801D903203AE61948006800F011
:1024700000700028F2D1206AB0F5803F07D11448DF
:10248000406820F40030A168084311494860D4E94D
:10249000080108430E49496821F4741108430C49A6
:1024A000486001200B490866FFF708FC054607E075
:1024B0003DE0FFF703FC401B022801D903200FE693
:1024C0000348006800F000700028F2D02FE0000000
:1024D000001002400000424280044242007000406E
:1024E000002014490866FFF7E9FB054606E0FFF700
:1024F000E5FB401B022801D90320F1E50E480068E6
:1025000000F000700028F2D111E0E069012800D14C
:10251000E6E50948466806F48031206A814204D124
:1025200006F47011606A814201D00120D8E50020D4
:10253000D6E50000000042420010024010B50446FB
:102540000CB9012010BD606A00B900BF0021A16272
:1025500094F8510028B9002084F85000204600F07B
:1025600031F8022084F851002068006820F0400013
:1025700021680860D4E901010843E1680843216942
:10258000084361690843218B01F400710843E16944
:102590000843216A0843A16A0843216808600421AE
:1025A000A06901EA1040216848602068C06920F4F1
:1025B00000602168C86100206065012084F8510036
:1025C0000020BFE710B586B00446002002900390BB
:1025D000049005903449206888422ED100BF3348CA
:1025E000806940F48050314988610846806900F470
:1025F0008050019000BF00BF00BF0846806940F0D6
:10260000040088610846806900F00400019000BF62
:1026100000BFA0200290022003900320059002A991
:102620002348FFF7ADF9402002900020039004906A
:1026300002A91F48FFF7A4F933E01E492068884229
:102640002FD100BF1948C06940F480401749C861C4
:102650000846C06900F48040019000BF00BF00BF81
:102660000846806940F0080088610846806900F0EB
:102670000800019000BF00BF4FF4204002900220EC
:1026800003900320059002A90B48FFF779F94FF456
:102690008040029000200390049002A90648FFF7B2
:1026A0006FF906B010BD000000300140001002407C
:1026B0000008014000380040000C014070B504469D
:1026C0002546681EB0F1807F01D301200FE0681E0F
:1026D0004FF0E02148610F214FF0FF3002F08CFAFB
:1026E00000204FF0E021886107200861002070BDC4
:1026F0007047704710B5024600BF92F83C000128B1
:1027000001D1022010BD012082F83C0000BF022050
:1027100082F83D00106843681068846823F07003F5
:102720000868034324F08004486804431068436049
:1027300010688460012082F83D0000BF002082F80C
:102740003C0000BF00BFDDE710B504460CB9012016
:1027500010BD94F83D0028B9002084F83C002046C4
:1027600000F00CF8022084F83D00211D206801F0E3
:102770005DFE012084F83D000020E9E738B50446FD
:102780002068B0F1804F16D100BF1848C06940F0F2
:1027900001001649C8610846C06900F001000090B8
:1027A00000BF00BF002211461C20FFF70DFB1C20BC
:1027B000FFF7FAFA19E00E492068884215D100BFE8
:1027C0000A48C06940F002000849C8610846C0696B
:1027D00000F00200009000BF00BF002211461D2043
:1027E000FFF7F2FA1D20FFF7DFFA38BD00100240B4
:1027F0000004004001460868C06840F001000B6812
:10280000D8600868806800F00702062A05D00868CA
:10281000006840F001000B681860002070472DE947
:10282000F04104460D4600BF94F83C00012802D157
:102830000220BDE8F081012084F83C0000BF0220A6
:1028400084F83D002068866826F0770626F47F46E7
:10285000206886602868502833D00CDC202850D0AF
:1028600004DC00284BD0102851D149E0302849D051
:1028700040284CD139E060282DD0702807D0B0F521
:10288000805F03D0B0F5005F41D10DE040E0D5E9B5
:1028900002136A68206801F003FE2068866846F02B
:1028A00077062068866033E0D5E902136A682068FD
:1028B00001F0F6FD2068806840F48040216888605F
:1028C00026E0EA686968206801F0FEFD5021206872
:1028D00001F0F1FD1CE0EA686968206801F007FE7C
:1028E0006021206801F0E7FD12E0EA68696820686D
:1028F00001F0EAFD4021206801F0DDFD08E000BFA5
:1029000000BF00BF2968206801F0D5FD00E000BFCE
:1029100000BF012084F83D0000BF002084F83C0087
:1029200000BF00BF85E7704710B504462068006906
:10293000C0F34000D8B12068C068C0F34000B0B117
:102940006FF002002168086101202077206880690B
:1029500000F0030018B12046FFF7E5FF05E0204630
:1029600000F0ADF8204600F0ABF80020207720689A
:102970000069C0F38000D8B12068C068C0F380004F
:10298000B0B16FF004002168086102202077206850
:10299000806900F4407018B12046FFF7C4FF05E0DD
:1029A000204600F08CF8204600F08AF800202077BE
:1029B00020680069C0F3C000D8B12068C068C0F3C7
:1029C000C000B0B16FF008002168086104202077D2
:1029D0002068C06900F0030018B12046FFF7A3FF8C
:1029E00005E0204600F06BF8204600F069F8002072
:1029F000207720680069C0F30010D8B12068C06853
:102A0000C0F30010B0B16FF0100021680861082019
:102A100020772068C06900F4407018B12046FFF7A5
:102A200082FF05E0204600F04AF8204600F048F812
:102A3000002020772068006900F0010058B120686C
:102A4000C06800F0010030B16FF00100216808613A
:102A5000204600F037F820680069C0F3C01058B174
:102A60002068C068C0F3C01030B16FF080002168EA
:102A700008612046FFF73CFE20680069C0F3801023
:102A800058B12068C068C0F3801030B16FF04000CA
:102A900021680861204600F037F820680069C0F31B
:102AA000401058B12068C068C0F3401030B16FF0DA
:102AB0002000216808612046FFF71BFE10BD70470B
:102AC0007047000010B504460B4800682168884232
:102AD00006D10A48006870B10848006880470AE0DB
:102AE000074800682168884205D10648006810B18F
:102AF00004480068804710BDA00100201400002099
:102B00006001002018000020704770B504460025C1
:102B100020684069C0F3C01594F8390021280ED10F
:102B20006DB12068406920F0800021684861206B09
:102B300010B1206BFEF795FD204601F0FDFD2068E9
:102B40004069C0F3801594F83A0022280ED16DB187
:102B50002068406920F0400021684861606B10B136
:102B6000606BFEF77EFD204601F0D6FD002070BDB3
:102B7000704710B504460CB9012010BDA06900B122
:102B800000E000BF94F8390028B9002084F838002C
:102B9000204600F027F8242084F839002068C06817
:102BA00020F400502168C860204601F0CFFD206865
:102BB000006920F49040216808612068406920F095
:102BC0002A00216848612068C06840F400502168EC
:102BD000C8600020E063202084F8390084F83A00BF
:102BE0000020CAE710B586B004460020029003908A
:102BF000049005906949206888425DD100BF68480B
:102C0000806940F48040664988610846806900F424
:102C10008040019000BF00BF00BF0846806940F0BF
:102C2000040088610846806900F00400019000BF3C
:102C300000BF48150290022003900320059002A9CE
:102C40005848FEF79DFE4FF48060029000200390EC
:102C5000049002A95348FEF793FE53485349086075
:102C6000002048600021514881608021C16000211E
:102C7000016141618161C161FEF7ECFD08B1FEF7C0
:102C800032F800BF49486063446200BF0022114629
:102C90002520FFF799F82520FFF786F844480068BB
:102CA000C06840F0100042490968C860FF224149ED
:102CB0003F4800F08DF86EE03F49206888426AD1B5
:102CC00000BF3748C06940F480203549C8610846D4
:102CD000C06900F48020019000BF00BF00BF08461B
:102CE000806940F0100088610846806900F010009B
:102CF000019000BF00BF081502900220039003203E
:102D0000059002A92D48FEF73BFE4FF400600290AB
:102D100000200390049002A92848FEF731FE00BF6E
:102D20002749486820F0300040F0E06040F0100093
:102D3000486000BF1C4828382249086000204860CD
:102D40000021204881608021C16000210161416132
:102D500081614FF40051C161FEF77CFD08B1FDF7C0
:102D6000C2FF00BF17486063446200BF00221146E3
:102D70002720FFF729F82720FFF716F812480068E8
:102D8000C06840F0100010490968C860FF220F4970
:102D90000D4800F01DF806B010BD000000380140DD
:102DA000001002400008014058000240600400206A
:102DB000E0030020DF020020004800400010014036
:102DC00000000140A404002020040020E0010020B5
:102DD00077B581B00446154694F83A00202850D1C2
:102DE000029800B115B9012004B070BD00BF94F87D
:102DF0003800012801D10220F6E7012084F83800CC
:102E000000BF0298A062A5850020E063222084F81C
:102E10003A001D48616B88621C48616BC8621C489F
:102E2000616B08630020616B486302AE32682368FF
:102E3000191D2B46606BFEF741FD00BF002000907E
:102E400020680068009020684068009000BF00BFC4
:102E500000BF002084F8380000BF2068C06840F43C
:102E600080702168C8602068406940F001002168D6
:102E700048612068406940F04000216848610020B6
:102E8000B2E70220B0E70000C54600080B47000883
:102E900075460008704770472DE9F84304460D4613
:102EA00016461F464FF0000994F8390020285CD1DF
:102EB00005B116B90120BDE8F88300BF94F83800C9
:102EC000012801D10220F6E7012084F8380000BF74
:102ED0000020E063212084F83900FEF7EFFE8146F0
:102EE000A684E6842BE0E08C401EE084A068B0F568
:102EF000805F16D14B46002280212046009701F0CA
:102F0000F5FC08B10320D6E7A846B8F80000C0F3E6
:102F1000080021684860206908B9AD1C0FE06D1CED
:102F20000DE04B46002280212046009701F0DEFC98
:102F300008B10320BFE715F8010B21684860E08C59
:102F40000028D0D14B46002240212046009701F0B6
:102F5000CDFC08B10320AEE7202084F8390000BF83
:102F6000002084F8380000BFA5E70220A3E7000096
:102F700000B58BB00020069007900120089000203B
:102F800001900290039004900590012009900E207A
:102F90000A9001A90A48FDF769FF08B1FDF7A3FEF1
:102FA0000748FEF728FB08B1FDF79DFE0221044803
:102FB000FDF79CFE08B1FDF796FE0BB000BD0000CA
:102FC0008800002000BFFEE710B500244FF42E71EA
:102FD0000848FDF7C0F80749204600F037FF0446CF
:102FE0000449204600F0F4FF04461D2C01DD00BF1B
:102FF000FEE710BD940A002010B50F480F49086085
:103000000920486000210D488160C1604FF4003103
:1030100001614FF4401141610021017641768176D2
:103020000121C176002101774177FEF789F908B1C6
:10303000FDF759FE10BD000000640040880000202C
:1030400008B500BF0E48406940F001000C494861D6
:103050000846406900F00100009000BF00BF002258
:1030600011460D20FEF7B0FE0D20FEF79DFE00225A
:1030700011460F20FEF7A8FE0F20FEF795FE08BDB3
:103080000010024000B585B000200190029003902E
:10309000049000BF5F48806940F010005D4988617E
:1030A0000846806900F01000009000BF00BF00BF1C
:1030B0000846806940F0200088610846806900F079
:1030C0002000009000BF00BF00BF0846806940F0AC
:1030D000040088610846806900F00400009000BF89
:1030E00000BF00BF0846806940F0080088610846BC
:1030F000806900F00800009000BF00BF00224FF47C
:1031000089714548FEF7D4FD002241F20F01434882
:10311000FEF7CEFD0122C0214148FEF7C9FD002285
:103120004FF480713E48FEF7C3FD0122D1033A48B7
:10313000FEF7BEFD4FF46040019000200290012098
:10314000039001A93648FEF71BFC40F20F200190C6
:1031500000200290039001A93148FEF711FC0120E4
:103160000190002002900120039001A92A48FEF757
:1031700007FC48F202000190012002900390022017
:10318000049001A92448FEF7FBFB042001900220D3
:1031900002900320049001A91F48FEF7F1FB0820CC
:1031A000019000200290039001A91B48FEF7E8FB64
:1031B0004FF48870019001200290002003900220BB
:1031C000049001A91448FEF7DBFB41F20F000190C7
:1031D0000120029003900220049001A90F48FEF7FD
:1031E000CFFB4FF4E070019001200290002003908B
:1031F0000220049001A90A48FEF7C2FBF0200190CA
:10320000002002900120039001A90448FEF7B8FBBA
:1032100005B000BD0010024000080140000C014054
:103220000010014010B50E480E4908604FF482703E
:10323000486000210B488160C160016141614FF429
:10324000007181610821C1610021016241628162D6
:103250000A21C162FFF772F908B1FDF744FD10BD04
:1032600000300140B000002010B50E480E49086043
:103270004FF48270486000210B488160C160016199
:1032800041614FF4007181610021C16101624162BD
:1032900081620A21C162FFF751F908B1FDF723FDF0
:1032A00010BD0000003800400801002000B587B0C4
:1032B00000200390049005900690019002904FF03A
:1032C000804014490860472048600021114881600F
:1032D00040F2E731C160002101618161FFF734FAFA
:1032E00008B1FDF700FD4FF48050039003A9094891
:1032F000FFF795FA08B1FDF7F6FC00200190029067
:1033000001A90448FFF7F6F908B1FDF7ECFC07B096
:1033100000BD00006001002000B587B000200390D0
:10332000049005900690019002901448144908609A
:103330004720486000211248816040F2E731C160B7
:10334000002101618161FFF7FFF908B1FDF7CBFCB6
:103350004FF48050039003A90948FFF760FA08B1C1
:10336000FDF7C1FC00200190029001A90448FFF77D
:10337000C1F908B1FDF7B7FC07B000BD000400407B
:10338000A001002010B50B480B4908604FF4E13054
:103390004860002108488160C16001610C214161E1
:1033A00000218161C161FFF7E4FB08B1FDF79BFCDF
:1033B00010BD000000380140E003002010B50B48AC
:1033C0000B4908604FF4E1304860002108488160F3
:1033D000C16001610C21416100218161C161FFF780
:1033E000C8FB08B1FDF77FFC10BD0000004800409D
:1033F0002004002000BFFEE770472DE9F05F04467F
:103400000D4616462069A063E068206131462846D3
:10341000FCF7FEFEE06094F83000012834D1D4E9D6
:103420000301FCF7F5FE8046A168FCF7F7FE0746AE
:103430002168E068FCF7F2FE81466168E068FCF70D
:10344000EDFE80466169FCF791FE6061D4E90501FB
:10345000FCF786FF02D2A06960610BE0A06980F0F2
:10346000004840466169FCF77BFF03D2A06980F009
:103470000040606139464846FCF778FE8046616945
:10348000FCF774FEE0614AE094F83000022846D16F
:10349000D4E90301FCF7BCFE81462168FCF7BEFEBF
:1034A0000746E1686068FCF7B9FE60614FF0804054
:1034B0002169FCF7B3FE8346E168FCF7ACFE824667
:1034C000A16BFCF753FE8146A168FCF7A7FE80467E
:1034D000D4E90501FCF744FF02D2A06960610BE06A
:1034E000A06980F0004948466169FCF739FF03D2C2
:1034F000A06980F00040606138466169FCF736FEE3
:1035000081464146FCF732FE6062616AE06AFCF780
:103510002DFEA062A06AE061A06AE06200BFD4E96B
:103520000701FCF71DFF02D2206AE0610BE0206A70
:1035300080F000473846E169FCF712FF03D2206AA9
:1035400080F00040E061BDE8F09F00000EB5012072
:103550002849009100231A46CDE901102649274841
:1035600000F062F801202349009100231A46CDE9BA
:1035700001102149224800F057F801201D4900910F
:1035800000231A46CDE901104FF07C511D4800F090
:103590004BF801201749009100231A46CDE901108C
:1035A00019491A4800F040F8012019490022134631
:1035B000CDE9002102904FF07F51164800F034F819
:1035C00001201549154A0023CDE9002102901A4631
:1035D0001946134800F028F801200F490F4A00232C
:1035E000CDE9002102901A4619460E4800F01CF859
:1035F0000EBD000000008C426666663FF0080020A9
:103600002C09002068090020CDCC4C3FA4090020E3
:1036100000007041E0090020000020410000C84285
:103620001C0A0020580A0020F0B505AC70CC0160DF
:10363000426083600027C76007618763C761476393
:103640008461056280F83060F0BD00002DE9F84F1C
:1036500004460D4616461F46ED4831460268ED48C1
:10366000FFF7CBFEEC480078052812D13846FCF76E
:103670004EFE804642460021E848FFF7BEFE0A980B
:10368000FCF745FE804642460021E548FFF7B5FEBF
:1036900004E00020E149C861E149C861DE480078E2
:1036A00006287CD0DC4800780728FAD0012C06D008
:1036B000022C5BD0032C73D0042C56D109E1D949DC
:1036C000B1F90A00FCF71AFE81462846FCF716FEFF
:1036D0008246D549FCF7D4FD80464A464146D34848
:1036E000FFF78BFECC48007805281FD0CA4890F819
:1036F000008008EBD8714910A8EB4100FCF7FEFDF3
:103700000090C448C1690098FCF788FD8346C7480B
:10371000C1695846FCF72AFD8246FCF7FDFD0FFA09
:1037200080F94946BF4800F048FC1EE0BA480078DE
:1037300005281AD1B948C06980F000494846FCF70D
:10374000EBFD0FFA80F84146B64800F036FCB5496B
:10375000B1F90A00FCF7D2FD8146B349FCF790FDB0
:103760008046FCF7D9FDB24908600BE1B149B1F9D7
:103770000A00FCF7C3FD81462846FCF7BFFD8246E0
:10378000A949FCF77DFD80464A464146AA48FFF715
:1037900034FEA1480078052824D09F4901E0F2E0DA
:1037A00040E091F8008008EBD8714910A8EB410186
:1037B000C1F10100FCF7A2FD00909648C169009894
:1037C000FCF72CFD83469C48C1695846FCF723FD55
:1037D0008246FCF7A1FD0FFA80F94946954800F0B2
:1037E000ECFB1EE08C48007805281AD18B48C06994
:1037F00080F000494846FCF78FFD0FFA80F84146FB
:10380000884800F0DAFB8B49B1F90A00FCF776FD35
:1038100081468549FCF734FD8046FCF77DFD8749EC
:103820000860AFE08649B1F90A00FCF767FD814600
:103830002846FCF763FD82467B49FCF721FD804664
:103840004A4641467F48FFF7D8FD7348007805286F
:103850001FD0714890F8008008EBD8714910A8EB90
:103860004100FCF74BFD00906A48C1690098FCF7E5
:10387000D5FC83467348C1695846FCF777FC8246FD
:10388000FCF74AFD0FFA80F949466D4800F095FBB8
:103890001EE06148007805281AD16048C06980F0B0
:1038A00000494846FCF738FD0FFA80F841465D486C
:1038B00000F083FB6249B1F90A00FCF71FFD814665
:1038C0005949FCF7DDFC8046FCF726FD5E4908609F
:1038D00058E05E49B1F90A00FCF710FD8146284620
:1038E000FCF70CFD82465049FCF7CAFC80464A466C
:1038F00041465748FFF781FD47480078052821D009
:10390000454991F8008008EBD8714910A8EB4101B6
:10391000C1F10100FCF7F2FC00903E48C16900983B
:10392000FCF77CFC83464A48C1695846FCF773FCA7
:103930008246FCF7F1FC0FFA80F94946434800F053
:103940003CFB1EE03448007805281AD13348C06992
:1039500080F000494846FCF7DFFC0FFA80F841464A
:10396000304800F02AFB3949B1F90A00FCF7C6FCDF
:1039700081462D49FCF784FC8046FCF7CDFC354997
:10398000086000BF41E0012C06D0022C12D0032CAD
:103990001ED0042C38D129E01E48C06980F00049AF
:1039A0004846FCF7B9FC0FFA80F841461D4800F084
:1039B00004FB00BF1748C06980F000494846FCF787
:1039C000ABFC0FFA80F841461A4800F0F6FA00BF47
:1039D0001048C06980F000494846FCF79DFC0FFA8A
:1039E00080F84146164800F0E8FA00BF0948C0696F
:1039F00080F000494846FCF78FFC0FFA80F84146FA
:103A0000124800F0DAFA00BF00BFBDE8F88F0000EE
:103A10000C000020E0090020440000201C0A0020C7
:103A2000580A00205C080020A6922B3DF0080020D8
:103A300034000020740800202C09002038000020E9
:103A40008C080020680900203C000020A408002009
:103A5000A40900204000002000200649087048709A
:103A6000FF208870C8700020087148718871C87183
:103A7000704700001C00002038B50446012000906B
:103A80000025009035E0BDF80000204028B101225B
:103A900011021B48FEF70CF905E000224FF480717B
:103AA0001748FEF705F9012240211548FEF700F9F5
:103AB0000A2001F087F9002240211148FEF7F8F8AA
:103AC0000A2001F07FF9012240210D48FEF7F0F8AD
:103AD0004FF400710A48FEF7E3F818B1BDF8000092
:103AE0002843C5B2BDF800004FF6FF7101EA40005F
:103AF0000090BDF80000FF28C5DD284638BD000055
:103B00000010014010B5002280211548FEF7D0F8C2
:103B1000102001F057F90120FFF7AEFF4320FFF717
:103B2000ABFF0020FFF7A8FF0120FFF7A5FF002053
:103B3000FFF7A2FF0020FFF79FFF0020FFF79CFF89
:103B40000020FFF799FF0020FFF796FF0122802158
:103B50000348FEF7ADF8102001F034F910BD000065
:103B60000010014010B5002280211548FEF7A0F892
:103B7000102001F027F90120FFF77EFF4320FFF717
:103B80007BFF0020FFF778FF0020FFF775FF5A202A
:103B9000FFF772FF5A20FFF76FFF5A20FFF76CFF05
:103BA0005A20FFF769FF5A20FFF766FF01228021A4
:103BB0000348FEF77DF8102001F004F910BD000065
:103BC000001001401CB5002001900120009000224F
:103BD00080212A48FEF76CF829490878FFF74CFF46
:103BE00027494878FFF748FF2649087001200190CF
:103BF00039E000240120009025E0012240211F48E7
:103C0000FEF756F80A2001F0DDF8002240211B489B
:103C1000FEF74EF80A2001F0D5F80122402117489E
:103C2000FEF746F84FF400711448FEF739F818B162
:103C3000BDF800002043C4B2BDF800004FF6FF718C
:103C400001EA40000090BDF80000FF28D5DD0D48D6
:103C50009DF804104454102001F0B4F89DF80400BD
:103C6000401CC0B201909DF804000828C1DB01226D
:103C700080210248FEF71CF81CBD00000010014026
:103C80006A5000081C00002010B5002280210C485A
:103C9000FEF70EF80B490878FFF7EEFE0949487861
:103CA000FFF7EAFE0446012280210548FEF700F8EE
:103CB00005480470732C01D1002010BD0120FCE7E1
:103CC000001001406A5000081C00002010B50122BD
:103CD00080211548FDF7ECFF012240211248FDF735
:103CE000E7FF012211021048FDF7E2FF00F01EF885
:103CF00000F01CF800F01AF8FFF704FF00F03AF8A3
:103D000000F064F8FFF72EFF012280210648FDF73E
:103D1000CFFF012240210448FDF7CAFF0122110212
:103D20000148FDF7C5FF10BD0010014010B500228D
:103D300080210F48FDF7BCFF102001F043F801205F
:103D4000FFF79AFE4220FFF797FE0020FFF794FE50
:103D50000020FFF791FE0020FFF78EFE0122802158
:103D60000348FDF7A5FF102001F02CF810BD00005E
:103D70000010014010B5002280211348FDF798FF84
:103D80000120FFF779FE4420FFF776FE0020FFF7C1
:103D900073FE0120FFF770FEEE20FFF76DFE00209E
:103DA000FFF76AFE0020FFF767FE0020FFF764FEC2
:103DB0000020FFF761FE012280210348FDF778FF14
:103DC000102000F0FFFF10BD0010014010B50022D0
:103DD00080210F48FDF76CFF102000F0F3FF012059
:103DE000FFF74AFE4D20FFF747FE0020FFF744FE95
:103DF0000020FFF741FE0120FFF73EFE0122802157
:103E00000348FDF755FF102000F0DCFF10BD000057
:103E100000100140704710B504462046FCF7B6FB81
:103E200010BD000008B508490968C9084FF47A7246
:103E3000B1FBF2F14143009100BF00BF00994A1E5F
:103E400000920029F9D108BD100000202DE9F041B1
:103E500005460E462F460748046806E032463946B6
:103E6000204600F02EF807466469002CF6D138464B
:103E7000BDE8F0817400002070B504460E460E487F
:103E8000056818212046FCF766F966804FF4FA4071
:103E9000A0810021E181A08004E0A54201D10020A1
:103EA00070BD6D69002DF8D103480068606102485B
:103EB00004600120F4E70000740000200146088936
:103EC0007047F0B593B004460D4617462E4626704F
:103ED0000222A01CA11CCDE90912CDE90B02002091
:103EE00032210123CDE905300192CDE90710CDE95A
:103EF00002200490A07813460022012100900DA812
:103F000001F004F83546711C8EB205EB450107EB54
:103F1000C10018220DA9FCF705F90821201D002277
:103F20000992CDE90A200C9110460A2101220023B2
:103F3000CDE905320193029303930493CDE9071071
:103F4000A07802230022FF2100900DA800F0DEFFE0
:103F50003146721C96B201EB410107EBC1001822F9
:103F60000DA9FCF7DFF80021082304F10C00CDE9CE
:103F70000A310C91099008460A2101220023CDE95B
:103F800005320193CDE902320492CDE90710A07801
:103F900002230022012100900DA800F0B7FF314656
:103FA000721C96B201EB410107EBC10018220DA96A
:103FB000FCF7B8F8304613B0F0BD0023C38101F51B
:103FC0007A524FF6FF7303EA420282817047000083
:103FD0002DE9F04105460E462F460748046806E0E5
:103FE00032463946204600F0D8F80746646A002C6D
:103FF000F6D13846BDE8F0817800002070B504465F
:104000000E460B48056828212046FCF7A4F8A67048
:1040100004E0A54201D1002070BD6D6A002DF8D1E9
:10402000034800686062024804600120F4E7000071
:10403000780000202DE9F05F04460D4616461F4625
:10404000DDE90DABDDF83090DDF82880B5F5FA7FBD
:1040500000DA002540F6C410854200DD0546142E26
:1040600000DA142647F23050864200DD0646B7F5E6
:10407000FA7F00DA002740F6C410874200DD0746C9
:10408000B8F1140F01DA4FF0140847F230508045B0
:1040900000DD80466581A681E781A4F810800B9839
:1040A000B0F5FA7F01DA00200B9040F6C4110B98AE
:1040B000884201DD08460B90B9F1140F01DA4FF088
:1040C000140947F23050814500DD8146BAF5FA7F88
:1040D00001DA4FF0000A40F6C410824500DD824646
:1040E000BBF1140F01DA4FF0140B47F23050834547
:1040F00000DD83460B986082A4F81490A4F816A003
:10410000A4F818B00F98B0F5FA7F01DA00200F90EC
:1041100040F6C4110F98884201DD08460F901098B0
:10412000142801DA1420109047F230511098884278
:1041300001DD084610901198B0F5FA7F01DA0020F1
:10414000119040F6C4111198884201DD0846119083
:104150001298142801DA1420129047F23051129864
:10416000884201DD084612900F9860831099A18360
:104170001199E183129921842178491CC8B2FCF776
:1041800073FD2178891CC8B2FCF76EFD2178C91C2B
:10419000C8B2FCF769FDBDE8F09FF0B593B00446E6
:1041A0000E461746354625700822601C611CCDE975
:1041B0000912CDE90B0200200A210123CDE90530C7
:1041C00005220192CDE90710CDE902230490A078E1
:1041D00004230022012100900DA800F097FE2E4636
:1041E000691C8DB206EB460107EBC10018220DA930
:1041F000FBF798FF082204F10A000146CDE90912F5
:10420000CDE90B0200200A210123CDE9053002226D
:104210000192CDE90710CDE902230490A078042390
:104220000022012100900DA800F070FE29466A1CB2
:1042300095B201EB410107EBC10018220DA9FBF774
:1042400071FF082204F112010846CDE90A210C92FF
:10425000099000200A210123CDE9053003220192B3
:10426000CDE90710CDE902230490A07804230022B1
:10427000012100900DA800F049FE29466A1C95B264
:1042800001EB410107EBC10018220DA9FBF74AFF22
:10429000082204F11A010846CDE90A210C9209907E
:1042A00000200A210123CDE9053004220192CDE945
:1042B0000710CDE902230490A078134600220121C3
:1042C00000900DA800F022FE29466A1C95B201EB71
:1042D000410107EBC10018220DA9FBF723FF284677
:1042E00013B0F0BD7047F8B50446206908B902263E
:1042F00000E00026207800F00F00009032460421F4
:104300002369A068FCF73CFC0546D5B92088C0F3BA
:104310004130012806D1208820F4C06000F580607B
:1043200020800EE02088C0F3413020B12088C0F307
:104330004130022805D1208820F4C06000F5C0601B
:104340002080F8BD10B5FDF7BFFC10BD00B58FB0E3
:10435000282105A8FBF7FFFE14216846FBF7FBFEAA
:10436000012005900004069000200790012009908C
:1043700002200C90C1030D914FF4E0110E9105A89D
:10438000FDF7AAFE08B1FCF7AEFC0F20009002205A
:104390000190002002904FF4806003900020049070
:1043A00002216846FDF762FD08B1FCF79CFC0FB0E6
:1043B00000BD00001148006840F001000F4908608E
:1043C000084640680E4908400C49486008460068A5
:1043D0000C490840094908600846006820F480201C
:1043E00008600846406820F4FE0048604FF41F0053
:1043F0008860C8030449086070470000001002404C
:104400000000FFF8FFFFF6FE08ED00E010B50248DF
:10441000FEF78AFA10BD00006001002010B50248C6
:10442000FEF782FA10BD0000A001002010B502685E
:10443000184B984208D0B0F1804F05D0164B9842E7
:1044400002D0164B984203D122F070024B681A43F7
:10445000104B984208D0B0F1804F05D00E4B9842D7
:1044600002D00E4B984203D122F44072CB681A431B
:1044700022F080034C6943EA040202608B68C36245
:104480000B688362034B984201D10B6903630123DC
:10449000436110BD002C01400004004000080040B2
:1044A00030B50C46816821F47F4142EA032525435B
:1044B0002943816030BD0A46816821F0700142F0D5
:1044C000070319438160704730B50B461446026AF2
:1044D000056A25F001050562816921F0F00141EAD4
:1044E000041122F00A021A438161026230BD30B524
:1044F0000B461446056A25F0100505628169026ABB
:1045000021F4704141EA043122F0A00242EA031290
:104510008161026230BD0346D01880B2984207DB49
:10452000D01880B2884201DD994209DA0120704733
:10453000D01880B2884203DC994201DA0120F6E704
:104540000020F4E702480088401C014908807047B9
:104550006A00002000B589B03548007800903548E1
:104560000378354802683548008801B20120FFF71A
:104570006DF82F48007800902E4803782E48026886
:104580002F48008801B20220FFF760F82848007821
:10459000009028480378284802682A48008801B219
:1045A0000320FFF753F82248007800902148037851
:1045B000214802682448008801B20420FFF746F829
:1045C00022480088401C2149088008460088142899
:1045D00025D1002008801E4840891E4949891C4A6F
:1045E00012891C4B1B89CDE90532CDE9071018480B
:1045F000C0881849C988164A9288164B9B88CDE90D
:104600000132CDE9031012484088009011484388D8
:104610000F4802880F4801880F48FFF70BFD00F094
:10462000C3FBFFF78FFFFCF783F809B000BD000064
:1046300061000020600000206400002034000020A1
:10464000380000203C0000204000002068000020CE
:1046500054000020480000202C06002010B504461D
:10466000024804600248FEF7C5F810BD140000209F
:10467000A001002070B506460025746A20684069D4
:10468000C0F3C01594F83900212805D125B10020C8
:10469000E084204600F050F820684069C0F380159F
:1046A00094F83A00222805D125B10020E085204663
:1046B00000F032F8E06B40F01000E0632046FEF7B7
:1046C00057FA70BD70B505466C6A2868006800F03E
:1046D0002000B0B90020E0852068C06820F4807018
:1046E0002168C8602068406920F0010021684861A5
:1046F0002068406920F0400021684861202084F84B
:104700003A002046FEF7C6FB70BD70B50446656AE8
:104710002846FEF7C0FB70BD0168C96821F490719E
:104720000268D1600168496921F0010102685161A4
:10473000202180F83A1070470168C96821F0C00153
:104740000268D160202180F83910704770B50446A6
:104750002168096921F44051E2681143226811611E
:104760002269A1681143626941EA02052168C968AA
:1047700041F20C62914329432268D1602168496962
:1047800021F44071A269114322685161564A21689F
:10479000914254D1FDF746FC00EBC00101EB001142
:1047A00062689200B1FBF2F100EBC00202EB001272
:1047B00063689B00B2FBF3F26423B2FBF3F202EBFB
:1047C000C20303EB0212A1EB8201322202EB0111C0
:1047D0006422B1FBF2F101F0F00100EBC00202EB48
:1047E000001263689B00B2FBF3F26423B2FBF3F2A6
:1047F00001EB021200EBC00101EB001163689B00AA
:10480000B1FBF3F100EBC00303EB00136668B600E5
:10481000B3FBF6F36426B3FBF6F303EBC30606EB38
:104820000313A1EB8301322303EB01116423B1FBDA
:10483000F3F101F00F0111442268916053E0FDF79C
:10484000E1FB00EBC00101EB001162689200B1FBDB
:10485000F2F100EBC00202EB001263689B00B2FBB6
:10486000F3F26423B2FBF3F202EBC20303EB021296
:10487000A1EB8201322202EB01116422B1FBF2F1C1
:1048800001F0F00100EBC00202EB001263689B0034
:10489000B2FBF3F26423B2FBF3F201EB021200EB82
:1048A000C00101EB001163689B00B1FBF3F100EB69
:1048B000C00303EB00136668B600B3FBF6F364268F
:1048C000B3FBF6F303EBC30606EB0313A1EB830183
:1048D000322303EB01116423B1FBF3F101F00F016B
:1048E00011442268916070BD003801402DE9F0410B
:1048F00004460D4617469846069E21E0701CF8B106
:104900002EB1FDF7DBF9A0EB0800B04218D9206802
:10491000C06820F4D0702168C8602068406920F029
:10492000010021684861202084F8390084F83A00A9
:1049300000BF002084F8380000BF0320BDE8F081EC
:10494000206800682840A84201D1012000E0002032
:10495000B842D3D00020F1E738B527480068006896
:10496000C0F30010002845D000BF0020009022486E
:10497000006800680090204800684068009000BF10
:1049800000BF1D48FEF7C1F81C48007855282CD1FF
:104990001A484078532828D1184880791749C9798E
:1049A00040EA0120B42100FB01F4E11704EB51417E
:1049B000C813FBF7A3FC12490860124910480068AD
:1049C000FBF7C4FC0DD210490D480068FBF7C8FC8A
:1049D00007D20C490A480068FBF71AFC084908602E
:1049E00003E00748006806490860FF2203490248BF
:1049F000FEF7EEF938BD0000E0030020DF020020E2
:104A00000C0000200000B443000087431FB54D4850
:104A100000680068C0F3001000287DD000BF0020AF
:104A20000090484800680068009046480068406868
:104A3000009000BF00BF4348FEF767F84248006897
:104A40004068C0F1FF004149087041480078A5283E
:104A500014D13F48C079FF2831D100200BE0411C20
:104A60003B4A515C3B4A1154011D394A515C3A4A58
:104A70001154411CC8B20328F1DB20E0344800780F
:104A8000A6280CD13248C078FF2818D13048407889
:104A9000324908702E488078314908700FE02C4860
:104AA0000078A7280BD12A48C078FF2807D12848CA
:104AB00040782C490870264880782B490870244893
:104AC000007855282DD122484078532829D12048F4
:104AD00080791F49C97940EA0120B42100FB01F423
:104AE000E11704EB5141C813FBF708FC1F490860AC
:104AF0001F491E480068FBF729FC0ED81D491B48BA
:104B00000068FBF72DFC08D8194918480068FBF726
:104B10007FFB1649086004E008E014480068134968
:104B20000860FF220A490748FEF752F912A207CA95
:104B300001AB07C34FF47A730A2201A90148FEF7BB
:104B4000ABF91FBD20040020A404002000000020B9
:104B5000E0010020010000200400002007000020E8
:104B600008000020090000200A0000200C0000209E
:104B70000000B44300008743676F742069740D0A16
:104B80000000000010B50248FCF7B3FA10BD0000A9
:104B9000880000202DE9F04704460D4616461F46C2
:104BA000DDE9099ADDF8208034212046FBF7D3FAAD
:104BB0002570E6826762C4F82880C4F82C90C4F897
:104BC00030A02078052803D10020E062206304E0B3
:104BD0002078042801D10020206301202084BDE832
:104BE000F08700BFFEE7000002480068C0F3022023
:104BF000704700000CED00E010B5002804DB0A0748
:104C0000130E054A135406E00A07140E034A00F077
:104C10000F031B1FD45410BD00E400E018ED00E0AA
:104C200002E008C8121F08C1002AFAD17047704775
:104C3000002001E001C1121F002AFBD170472DE9BD
:104C4000F04104462069804780462078C0F3001078
:104C5000404512D02078401C217860F30201217079
:104C600001F0070007280CDB207868F3041020709F
:104C7000207820F00700207003E0207820F0070063
:104C8000207020780009217880EAD100C04360F3C9
:104C90004511217020784009217880EAD11000EA7E
:104CA000511060F3861121702078410961F3C7101B
:104CB00020702078C0F340102178C1F3801108449F
:104CC000217800EBD11727B1022F3CD0032F4AD116
:104CD0002DE0E078002803DD607840F0020060708D
:104CE000E0882189884203DAE088401CE0801DE0EA
:104CF0002079D8B1607840F04000607020790128B8
:104D000004D1607840F0040060700DE02079022842
:104D100004D1607840F00800607005E0207960718F
:104D2000607840F010006070002020711BE0607817
:104D300040F001006070002060812079401C2071EB
:104D40000020E0800FE06089401C6081A08948B1AC
:104D50006089A189884205DB607840F0200060709E
:104D60000020608100BF00BFE7706078D0B10126ED
:104D7000002515E06078304070B104F1180050F85B
:104D8000250030B1A67004F1180050F82510204617
:104D900088476078B04360707006060E681CC5B224
:104DA000072DE7DBBDE8F08110B50548046803E096
:104DB0002046FFF744FF6469002CF9D110BD0000C4
:104DC00024000020002100E0491C00EB8002B1EB30
:104DD000420FF9DB7047000010B524480078401CF2
:104DE0002249087040F2DC502149C8804FF47A70A3
:104DF000888040F6FC0008814FF4FA60FCF7ACFDB7
:104E000040F666001A49C8804FF46170488040F24D
:104E1000DC5088804FF49670FCF79EFD4FF47A705A
:104E20001349088011480078012802D140F2DC5073
:104E300048810E480078022803D140F263200C49D3
:104E400048810A480078032806D140F655100849E1
:104E5000488100200549087040F2DC50FCF77CFDD9
:104E600040F2DC500249088010BD000046000020DE
:104E700048000020FCF734FFFFF768FAFEF702F95C
:104E8000FEF7DEF8FEF7B8F8FEF7CCF9FEF7ECF91E
:104E9000FEF70CFAFEF740FAFEF790FAFEF772FA08
:104EA00001E0FBF7EBFAFCE710B540F2DC501649E5
:104EB000C8804FF49670FCF74FFD40F28A201249EB
:104EC00008814FF41670FCF747FD4FF47A700E49D5
:104ED000C8804FF49670FCF73FFD40F2A4600A4989
:104EE00048804FF49670FCF737FD40F2DC500649DD
:104EF0008880FCF731FD40F21450034908804FF4DC
:104F0000FA70FCF729FD10BD480000202DE9FF4F85
:104F100089B00C4615461E46DDE921B8DDE91FA71C
:104F2000DDF85890002002900190BAF1000F00D1F6
:104F3000C7B1029869F313400290029866F31B50C0
:104F400002900299179860F30F310291029865F36D
:104F500003000290029864F30B100290029820F074
:104F600080500290BBF1000F02D1B8F1000F18D0B1
:104F7000019865F313400190019864F31B50019070
:104F80000199189860F30F310191019869F30300BA
:104F90000190019866F30B100190019820F0805069
:104FA0000190082F00DD0827B8F1080F01DD4FF050
:104FB0000808BDF80C10199860F30821ADF80C1022
:104FC000BDF80C101A9860F34A21ADF80C10BDF82A
:104FD0000C101B9860F34E31ADF80C101E98ADF814
:104FE00012000298059001980690BDF80C101C98CC
:104FF00060F3CC21ADF80C101D98ADF81000CDF881
:105000001CA09DF80C0067F303008DF80C00CDF890
:1050100020B09DF80C0068F307108DF80C00BDF867
:105020000E0020F00300ADF80E00BDF80E0020F0D9
:105030003C00ADF80E00BDF80E0020F4E070ADF8B5
:105040000E00182203A90998FBF76CF80DB0BDE813
:10505000F08F0000000000000000010203040607BA
:1050600008090000000001020304014201000200DF
:1050700003000400050006000700080009000A00FC
:105080000B000C000D000E000F001000AC500008CB
:105090000000002088000000204C00083451000867
:1050A00088000020C8100000304C000800000000FC
:1050B0000000000000000000000000000024F400D8
:1050C00000000000000000000000000000000000E0
:1050D00000000000000000000000000000000000D0
:1050E00000000000000000000000000000000000C0
:1050F00000100000DC05DC05E803DC05F401E80332
:105100009600900190019001BC0290010000000007
:10511000000000000000000000000000000000008F
:10512000000000000000000000000000100000006F
:04513000010000007A
:04000005080000ED02
:00000001FF
